{
	"contracts/TodoList.sol": {
		"TodoList": {
			"abi": [
				{
					"anonymous": false,
					"inputs": [
						{
							"indexed": false,
							"internalType": "uint256",
							"name": "id",
							"type": "uint256"
						},
						{
							"indexed": false,
							"internalType": "string",
							"name": "content",
							"type": "string"
						}
					],
					"name": "TodoAdded",
					"type": "event"
				},
				{
					"inputs": [
						{
							"internalType": "string",
							"name": "_content",
							"type": "string"
						}
					],
					"name": "addTodo",
					"outputs": [],
					"stateMutability": "nonpayable",
					"type": "function"
				},
				{
					"inputs": [
						{
							"internalType": "uint256",
							"name": "_id",
							"type": "uint256"
						}
					],
					"name": "getTodo",
					"outputs": [
						{
							"internalType": "uint256",
							"name": "",
							"type": "uint256"
						},
						{
							"internalType": "string",
							"name": "",
							"type": "string"
						},
						{
							"internalType": "enum TodoList.Status",
							"name": "",
							"type": "uint8"
						}
					],
					"stateMutability": "view",
					"type": "function"
				},
				{
					"inputs": [],
					"name": "nextId",
					"outputs": [
						{
							"internalType": "uint256",
							"name": "",
							"type": "uint256"
						}
					],
					"stateMutability": "view",
					"type": "function"
				},
				{
					"inputs": [
						{
							"internalType": "uint256",
							"name": "",
							"type": "uint256"
						}
					],
					"name": "todoIds",
					"outputs": [
						{
							"internalType": "uint256",
							"name": "",
							"type": "uint256"
						}
					],
					"stateMutability": "view",
					"type": "function"
				},
				{
					"inputs": [
						{
							"internalType": "uint256",
							"name": "",
							"type": "uint256"
						}
					],
					"name": "todos",
					"outputs": [
						{
							"internalType": "uint256",
							"name": "id",
							"type": "uint256"
						},
						{
							"internalType": "string",
							"name": "content",
							"type": "string"
						},
						{
							"internalType": "enum TodoList.Status",
							"name": "status",
							"type": "uint8"
						}
					],
					"stateMutability": "view",
					"type": "function"
				},
				{
					"inputs": [
						{
							"internalType": "uint256",
							"name": "_id",
							"type": "uint256"
						},
						{
							"internalType": "enum TodoList.Status",
							"name": "_status",
							"type": "uint8"
						}
					],
					"name": "updateStatus",
					"outputs": [],
					"stateMutability": "nonpayable",
					"type": "function"
				}
			],
			"devdoc": {
				"kind": "dev",
				"methods": {},
				"version": 1
			},
			"evm": {
				"assembly": "    /* \"contracts/TodoList.sol\":169:1396  contract TodoList {... */\n  mstore(0x40, 0x80)\n    /* \"contracts/TodoList.sol\":544:545  1 */\n  0x01\n    /* \"contracts/TodoList.sol\":523:545  uint public nextId = 1 */\n  0x02\n  sstore\n    /* \"contracts/TodoList.sol\":169:1396  contract TodoList {... */\n  callvalue\n  dup1\n  iszero\n  tag_1\n  jumpi\n  0x00\n  dup1\n  revert\ntag_1:\n  pop\n  dataSize(sub_0)\n  dup1\n  dataOffset(sub_0)\n  0x00\n  codecopy\n  0x00\n  return\nstop\n\nsub_0: assembly {\n        /* \"contracts/TodoList.sol\":169:1396  contract TodoList {... */\n      mstore(0x40, 0x80)\n      callvalue\n      dup1\n      iszero\n      tag_1\n      jumpi\n      0x00\n      dup1\n      revert\n    tag_1:\n      pop\n      jumpi(tag_2, lt(calldatasize, 0x04))\n      shr(0xe0, calldataload(0x00))\n      dup1\n      0x03c5c31f\n      eq\n      tag_3\n      jumpi\n      dup1\n      0x3a1b3d31\n      eq\n      tag_4\n      jumpi\n      dup1\n      0x61b8ce8c\n      eq\n      tag_5\n      jumpi\n      dup1\n      0x95ffebf5\n      eq\n      tag_6\n      jumpi\n      dup1\n      0xbc8bc2b4\n      eq\n      tag_7\n      jumpi\n      dup1\n      0xdd68afb6\n      eq\n      tag_8\n      jumpi\n    tag_2:\n      0x00\n      dup1\n      revert\n        /* \"contracts/TodoList.sol\":495:516  uint[] public todoIds */\n    tag_3:\n      tag_9\n      0x04\n      dup1\n      calldatasize\n      sub\n      dup2\n      add\n      swap1\n      tag_10\n      swap2\n      swap1\n      tag_11\n      jump\t// in\n    tag_10:\n      tag_12\n      jump\t// in\n    tag_9:\n      mload(0x40)\n      tag_13\n      swap2\n      swap1\n      tag_14\n      jump\t// in\n    tag_13:\n      mload(0x40)\n      dup1\n      swap2\n      sub\n      swap1\n      return\n        /* \"contracts/TodoList.sol\":941:1097  function updateStatus(uint _id, Status _status) public {... */\n    tag_4:\n      tag_15\n      0x04\n      dup1\n      calldatasize\n      sub\n      dup2\n      add\n      swap1\n      tag_16\n      swap2\n      swap1\n      tag_17\n      jump\t// in\n    tag_16:\n      tag_18\n      jump\t// in\n    tag_15:\n      stop\n        /* \"contracts/TodoList.sol\":523:545  uint public nextId = 1 */\n    tag_5:\n      tag_19\n      tag_20\n      jump\t// in\n    tag_19:\n      mload(0x40)\n      tag_21\n      swap2\n      swap1\n      tag_14\n      jump\t// in\n    tag_21:\n      mload(0x40)\n      dup1\n      swap2\n      sub\n      swap1\n      return\n        /* \"contracts/TodoList.sol\":687:901  function addTodo(string memory _content) public {... */\n    tag_6:\n      tag_22\n      0x04\n      dup1\n      calldatasize\n      sub\n      dup2\n      add\n      swap1\n      tag_23\n      swap2\n      swap1\n      tag_24\n      jump\t// in\n    tag_23:\n      tag_25\n      jump\t// in\n    tag_22:\n      stop\n        /* \"contracts/TodoList.sol\":454:488  mapping(uint => Todo) public todos */\n    tag_7:\n      tag_26\n      0x04\n      dup1\n      calldatasize\n      sub\n      dup2\n      add\n      swap1\n      tag_27\n      swap2\n      swap1\n      tag_11\n      jump\t// in\n    tag_27:\n      tag_28\n      jump\t// in\n    tag_26:\n      mload(0x40)\n      tag_29\n      swap4\n      swap3\n      swap2\n      swap1\n      tag_30\n      jump\t// in\n    tag_29:\n      mload(0x40)\n      dup1\n      swap2\n      sub\n      swap1\n      return\n        /* \"contracts/TodoList.sol\":1158:1393  function getTodo(uint _id) public view returns (uint, string memory, Status) {... */\n    tag_8:\n      tag_31\n      0x04\n      dup1\n      calldatasize\n      sub\n      dup2\n      add\n      swap1\n      tag_32\n      swap2\n      swap1\n      tag_11\n      jump\t// in\n    tag_32:\n      tag_33\n      jump\t// in\n    tag_31:\n      mload(0x40)\n      tag_34\n      swap4\n      swap3\n      swap2\n      swap1\n      tag_30\n      jump\t// in\n    tag_34:\n      mload(0x40)\n      dup1\n      swap2\n      sub\n      swap1\n      return\n        /* \"contracts/TodoList.sol\":495:516  uint[] public todoIds */\n    tag_12:\n      0x01\n      dup2\n      dup2\n      sload\n      dup2\n      lt\n      tag_35\n      jumpi\n      0x00\n      dup1\n      revert\n    tag_35:\n      swap1\n      0x00\n      mstore\n      keccak256(0x00, 0x20)\n      add\n      0x00\n      swap2\n      pop\n      swap1\n      pop\n      sload\n      dup2\n      jump\t// out\n        /* \"contracts/TodoList.sol\":941:1097  function updateStatus(uint _id, Status _status) public {... */\n    tag_18:\n        /* \"contracts/TodoList.sol\":1021:1027  nextId */\n      sload(0x02)\n        /* \"contracts/TodoList.sol\":1015:1018  _id */\n      dup3\n        /* \"contracts/TodoList.sol\":1015:1027  _id < nextId */\n      lt\n        /* \"contracts/TodoList.sol\":1007:1051  require(_id < nextId, \"Todo does not exist\") */\n      tag_38\n      jumpi\n      mload(0x40)\n      0x08c379a000000000000000000000000000000000000000000000000000000000\n      dup2\n      mstore\n      0x04\n      add\n      tag_39\n      swap1\n      tag_40\n      jump\t// in\n    tag_39:\n      mload(0x40)\n      dup1\n      swap2\n      sub\n      swap1\n      revert\n    tag_38:\n        /* \"contracts/TodoList.sol\":1082:1089  _status */\n      dup1\n        /* \"contracts/TodoList.sol\":1062:1067  todos */\n      0x00\n        /* \"contracts/TodoList.sol\":1062:1072  todos[_id] */\n      dup1\n        /* \"contracts/TodoList.sol\":1068:1071  _id */\n      dup5\n        /* \"contracts/TodoList.sol\":1062:1072  todos[_id] */\n      dup2\n      mstore\n      0x20\n      add\n      swap1\n      dup2\n      mstore\n      0x20\n      add\n      0x00\n      keccak256\n        /* \"contracts/TodoList.sol\":1062:1079  todos[_id].status */\n      0x02\n      add\n      0x00\n        /* \"contracts/TodoList.sol\":1062:1089  todos[_id].status = _status */\n      0x0100\n      exp\n      dup2\n      sload\n      dup2\n      0xff\n      mul\n      not\n      and\n      swap1\n      dup4\n      0x02\n      dup2\n      gt\n      iszero\n      tag_41\n      jumpi\n      tag_42\n      tag_43\n      jump\t// in\n    tag_42:\n    tag_41:\n      mul\n      or\n      swap1\n      sstore\n      pop\n        /* \"contracts/TodoList.sol\":941:1097  function updateStatus(uint _id, Status _status) public {... */\n      pop\n      pop\n      jump\t// out\n        /* \"contracts/TodoList.sol\":523:545  uint public nextId = 1 */\n    tag_20:\n      sload(0x02)\n      dup2\n      jump\t// out\n        /* \"contracts/TodoList.sol\":687:901  function addTodo(string memory _content) public {... */\n    tag_25:\n        /* \"contracts/TodoList.sol\":762:800  Todo(nextId, _content, Status.Pending) */\n      mload(0x40)\n      dup1\n      0x60\n      add\n      0x40\n      mstore\n      dup1\n        /* \"contracts/TodoList.sol\":767:773  nextId */\n      sload(0x02)\n        /* \"contracts/TodoList.sol\":762:800  Todo(nextId, _content, Status.Pending) */\n      dup2\n      mstore\n      0x20\n      add\n        /* \"contracts/TodoList.sol\":775:783  _content */\n      dup3\n        /* \"contracts/TodoList.sol\":762:800  Todo(nextId, _content, Status.Pending) */\n      dup2\n      mstore\n      0x20\n      add\n        /* \"contracts/TodoList.sol\":785:799  Status.Pending */\n      0x00\n        /* \"contracts/TodoList.sol\":762:800  Todo(nextId, _content, Status.Pending) */\n      0x02\n      dup2\n      gt\n      iszero\n      tag_45\n      jumpi\n      tag_46\n      tag_43\n      jump\t// in\n    tag_46:\n    tag_45:\n      dup2\n      mstore\n      pop\n        /* \"contracts/TodoList.sol\":746:751  todos */\n      0x00\n        /* \"contracts/TodoList.sol\":746:759  todos[nextId] */\n      dup1\n        /* \"contracts/TodoList.sol\":752:758  nextId */\n      sload(0x02)\n        /* \"contracts/TodoList.sol\":746:759  todos[nextId] */\n      dup2\n      mstore\n      0x20\n      add\n      swap1\n      dup2\n      mstore\n      0x20\n      add\n      0x00\n      keccak256\n        /* \"contracts/TodoList.sol\":746:800  todos[nextId] = Todo(nextId, _content, Status.Pending) */\n      0x00\n      dup3\n      add\n      mload\n      dup2\n      0x00\n      add\n      sstore\n      0x20\n      dup3\n      add\n      mload\n      dup2\n      0x01\n      add\n      swap1\n      dup2\n      tag_47\n      swap2\n      swap1\n      tag_48\n      jump\t// in\n    tag_47:\n      pop\n      0x40\n      dup3\n      add\n      mload\n      dup2\n      0x02\n      add\n      exp(0x0100, 0x00)\n      dup2\n      sload\n      dup2\n      0xff\n      mul\n      not\n      and\n      swap1\n      dup4\n      0x02\n      dup2\n      gt\n      iszero\n      tag_49\n      jumpi\n      tag_50\n      tag_43\n      jump\t// in\n    tag_50:\n    tag_49:\n      mul\n      or\n      swap1\n      sstore\n      pop\n      swap1\n      pop\n      pop\n        /* \"contracts/TodoList.sol\":811:818  todoIds */\n      0x01\n        /* \"contracts/TodoList.sol\":824:830  nextId */\n      sload(0x02)\n        /* \"contracts/TodoList.sol\":811:831  todoIds.push(nextId) */\n      swap1\n      dup1\n      0x01\n      dup2\n      sload\n      add\n      dup1\n      dup3\n      sstore\n      dup1\n      swap2\n      pop\n      pop\n      0x01\n      swap1\n      sub\n      swap1\n      0x00\n      mstore\n      keccak256(0x00, 0x20)\n      add\n      0x00\n      swap1\n      swap2\n      swap1\n      swap2\n      swap1\n      swap2\n      pop\n      sstore\n        /* \"contracts/TodoList.sol\":847:874  TodoAdded(nextId, _content) */\n      0x606222d2d9b2ffe82e59c226d772a363312cfce0027119e88e27c4db155e882d\n        /* \"contracts/TodoList.sol\":857:863  nextId */\n      sload(0x02)\n        /* \"contracts/TodoList.sol\":865:873  _content */\n      dup3\n        /* \"contracts/TodoList.sol\":847:874  TodoAdded(nextId, _content) */\n      mload(0x40)\n      tag_52\n      swap3\n      swap2\n      swap1\n      tag_53\n      jump\t// in\n    tag_52:\n      mload(0x40)\n      dup1\n      swap2\n      sub\n      swap1\n      log1\n        /* \"contracts/TodoList.sol\":885:891  nextId */\n      0x02\n      0x00\n        /* \"contracts/TodoList.sol\":885:893  nextId++ */\n      dup2\n      sload\n      dup1\n      swap3\n      swap2\n      swap1\n      tag_54\n      swap1\n      tag_55\n      jump\t// in\n    tag_54:\n      swap2\n      swap1\n      pop\n      sstore\n      pop\n        /* \"contracts/TodoList.sol\":687:901  function addTodo(string memory _content) public {... */\n      pop\n      jump\t// out\n        /* \"contracts/TodoList.sol\":454:488  mapping(uint => Todo) public todos */\n    tag_28:\n      mstore(0x20, 0x00)\n      dup1\n      0x00\n      mstore\n      keccak256(0x00, 0x40)\n      0x00\n      swap2\n      pop\n      swap1\n      pop\n      dup1\n      0x00\n      add\n      sload\n      swap1\n      dup1\n      0x01\n      add\n      dup1\n      sload\n      tag_56\n      swap1\n      tag_57\n      jump\t// in\n    tag_56:\n      dup1\n      0x1f\n      add\n      0x20\n      dup1\n      swap2\n      div\n      mul\n      0x20\n      add\n      mload(0x40)\n      swap1\n      dup2\n      add\n      0x40\n      mstore\n      dup1\n      swap3\n      swap2\n      swap1\n      dup2\n      dup2\n      mstore\n      0x20\n      add\n      dup3\n      dup1\n      sload\n      tag_58\n      swap1\n      tag_57\n      jump\t// in\n    tag_58:\n      dup1\n      iszero\n      tag_59\n      jumpi\n      dup1\n      0x1f\n      lt\n      tag_60\n      jumpi\n      0x0100\n      dup1\n      dup4\n      sload\n      div\n      mul\n      dup4\n      mstore\n      swap2\n      0x20\n      add\n      swap2\n      jump(tag_59)\n    tag_60:\n      dup3\n      add\n      swap2\n      swap1\n      0x00\n      mstore\n      keccak256(0x00, 0x20)\n      swap1\n    tag_61:\n      dup2\n      sload\n      dup2\n      mstore\n      swap1\n      0x01\n      add\n      swap1\n      0x20\n      add\n      dup1\n      dup4\n      gt\n      tag_61\n      jumpi\n      dup3\n      swap1\n      sub\n      0x1f\n      and\n      dup3\n      add\n      swap2\n    tag_59:\n      pop\n      pop\n      pop\n      pop\n      pop\n      swap1\n      dup1\n      0x02\n      add\n      0x00\n      swap1\n      sload\n      swap1\n      0x0100\n      exp\n      swap1\n      div\n      0xff\n      and\n      swap1\n      pop\n      dup4\n      jump\t// out\n        /* \"contracts/TodoList.sol\":1158:1393  function getTodo(uint _id) public view returns (uint, string memory, Status) {... */\n    tag_33:\n        /* \"contracts/TodoList.sol\":1206:1210  uint */\n      0x00\n        /* \"contracts/TodoList.sol\":1212:1225  string memory */\n      0x60\n        /* \"contracts/TodoList.sol\":1227:1233  Status */\n      0x00\n        /* \"contracts/TodoList.sol\":1260:1266  nextId */\n      sload(0x02)\n        /* \"contracts/TodoList.sol\":1254:1257  _id */\n      dup5\n        /* \"contracts/TodoList.sol\":1254:1266  _id < nextId */\n      lt\n        /* \"contracts/TodoList.sol\":1246:1290  require(_id < nextId, \"Todo does not exist\") */\n      tag_63\n      jumpi\n      mload(0x40)\n      0x08c379a000000000000000000000000000000000000000000000000000000000\n      dup2\n      mstore\n      0x04\n      add\n      tag_64\n      swap1\n      tag_40\n      jump\t// in\n    tag_64:\n      mload(0x40)\n      dup1\n      swap2\n      sub\n      swap1\n      revert\n    tag_63:\n        /* \"contracts/TodoList.sol\":1301:1318  Todo storage todo */\n      0x00\n        /* \"contracts/TodoList.sol\":1321:1326  todos */\n      dup1\n        /* \"contracts/TodoList.sol\":1321:1331  todos[_id] */\n      0x00\n        /* \"contracts/TodoList.sol\":1327:1330  _id */\n      dup7\n        /* \"contracts/TodoList.sol\":1321:1331  todos[_id] */\n      dup2\n      mstore\n      0x20\n      add\n      swap1\n      dup2\n      mstore\n      0x20\n      add\n      0x00\n      keccak256\n        /* \"contracts/TodoList.sol\":1301:1331  Todo storage todo = todos[_id] */\n      swap1\n      pop\n        /* \"contracts/TodoList.sol\":1350:1354  todo */\n      dup1\n        /* \"contracts/TodoList.sol\":1350:1357  todo.id */\n      0x00\n      add\n      sload\n        /* \"contracts/TodoList.sol\":1359:1363  todo */\n      dup2\n        /* \"contracts/TodoList.sol\":1359:1371  todo.content */\n      0x01\n      add\n        /* \"contracts/TodoList.sol\":1373:1377  todo */\n      dup3\n        /* \"contracts/TodoList.sol\":1373:1384  todo.status */\n      0x02\n      add\n      0x00\n      swap1\n      sload\n      swap1\n      0x0100\n      exp\n      swap1\n      div\n      0xff\n      and\n        /* \"contracts/TodoList.sol\":1342:1385  return (todo.id, todo.content, todo.status) */\n      dup2\n      dup1\n      sload\n      tag_65\n      swap1\n      tag_57\n      jump\t// in\n    tag_65:\n      dup1\n      0x1f\n      add\n      0x20\n      dup1\n      swap2\n      div\n      mul\n      0x20\n      add\n      mload(0x40)\n      swap1\n      dup2\n      add\n      0x40\n      mstore\n      dup1\n      swap3\n      swap2\n      swap1\n      dup2\n      dup2\n      mstore\n      0x20\n      add\n      dup3\n      dup1\n      sload\n      tag_66\n      swap1\n      tag_57\n      jump\t// in\n    tag_66:\n      dup1\n      iszero\n      tag_67\n      jumpi\n      dup1\n      0x1f\n      lt\n      tag_68\n      jumpi\n      0x0100\n      dup1\n      dup4\n      sload\n      div\n      mul\n      dup4\n      mstore\n      swap2\n      0x20\n      add\n      swap2\n      jump(tag_67)\n    tag_68:\n      dup3\n      add\n      swap2\n      swap1\n      0x00\n      mstore\n      keccak256(0x00, 0x20)\n      swap1\n    tag_69:\n      dup2\n      sload\n      dup2\n      mstore\n      swap1\n      0x01\n      add\n      swap1\n      0x20\n      add\n      dup1\n      dup4\n      gt\n      tag_69\n      jumpi\n      dup3\n      swap1\n      sub\n      0x1f\n      and\n      dup3\n      add\n      swap2\n    tag_67:\n      pop\n      pop\n      pop\n      pop\n      pop\n      swap2\n      pop\n      swap4\n      pop\n      swap4\n      pop\n      swap4\n      pop\n      pop\n        /* \"contracts/TodoList.sol\":1158:1393  function getTodo(uint _id) public view returns (uint, string memory, Status) {... */\n      swap2\n      swap4\n      swap1\n      swap3\n      pop\n      jump\t// out\n        /* \"#utility.yul\":7:82   */\n    tag_70:\n        /* \"#utility.yul\":40:46   */\n      0x00\n        /* \"#utility.yul\":73:75   */\n      0x40\n        /* \"#utility.yul\":67:76   */\n      mload\n        /* \"#utility.yul\":57:76   */\n      swap1\n      pop\n        /* \"#utility.yul\":7:82   */\n      swap1\n      jump\t// out\n        /* \"#utility.yul\":88:205   */\n    tag_71:\n        /* \"#utility.yul\":197:198   */\n      0x00\n        /* \"#utility.yul\":194:195   */\n      dup1\n        /* \"#utility.yul\":187:199   */\n      revert\n        /* \"#utility.yul\":211:328   */\n    tag_72:\n        /* \"#utility.yul\":320:321   */\n      0x00\n        /* \"#utility.yul\":317:318   */\n      dup1\n        /* \"#utility.yul\":310:322   */\n      revert\n        /* \"#utility.yul\":334:411   */\n    tag_73:\n        /* \"#utility.yul\":371:378   */\n      0x00\n        /* \"#utility.yul\":400:405   */\n      dup2\n        /* \"#utility.yul\":389:405   */\n      swap1\n      pop\n        /* \"#utility.yul\":334:411   */\n      swap2\n      swap1\n      pop\n      jump\t// out\n        /* \"#utility.yul\":417:539   */\n    tag_74:\n        /* \"#utility.yul\":490:514   */\n      tag_122\n        /* \"#utility.yul\":508:513   */\n      dup2\n        /* \"#utility.yul\":490:514   */\n      tag_73\n      jump\t// in\n    tag_122:\n        /* \"#utility.yul\":483:488   */\n      dup2\n        /* \"#utility.yul\":480:515   */\n      eq\n        /* \"#utility.yul\":470:533   */\n      tag_123\n      jumpi\n        /* \"#utility.yul\":529:530   */\n      0x00\n        /* \"#utility.yul\":526:527   */\n      dup1\n        /* \"#utility.yul\":519:531   */\n      revert\n        /* \"#utility.yul\":470:533   */\n    tag_123:\n        /* \"#utility.yul\":417:539   */\n      pop\n      jump\t// out\n        /* \"#utility.yul\":545:684   */\n    tag_75:\n        /* \"#utility.yul\":591:596   */\n      0x00\n        /* \"#utility.yul\":629:635   */\n      dup2\n        /* \"#utility.yul\":616:636   */\n      calldataload\n        /* \"#utility.yul\":607:636   */\n      swap1\n      pop\n        /* \"#utility.yul\":645:678   */\n      tag_125\n        /* \"#utility.yul\":672:677   */\n      dup2\n        /* \"#utility.yul\":645:678   */\n      tag_74\n      jump\t// in\n    tag_125:\n        /* \"#utility.yul\":545:684   */\n      swap3\n      swap2\n      pop\n      pop\n      jump\t// out\n        /* \"#utility.yul\":690:1019   */\n    tag_11:\n        /* \"#utility.yul\":749:755   */\n      0x00\n        /* \"#utility.yul\":798:800   */\n      0x20\n        /* \"#utility.yul\":786:795   */\n      dup3\n        /* \"#utility.yul\":777:784   */\n      dup5\n        /* \"#utility.yul\":773:796   */\n      sub\n        /* \"#utility.yul\":769:801   */\n      slt\n        /* \"#utility.yul\":766:885   */\n      iszero\n      tag_127\n      jumpi\n        /* \"#utility.yul\":804:883   */\n      tag_128\n      tag_71\n      jump\t// in\n    tag_128:\n        /* \"#utility.yul\":766:885   */\n    tag_127:\n        /* \"#utility.yul\":924:925   */\n      0x00\n        /* \"#utility.yul\":949:1002   */\n      tag_129\n        /* \"#utility.yul\":994:1001   */\n      dup5\n        /* \"#utility.yul\":985:991   */\n      dup3\n        /* \"#utility.yul\":974:983   */\n      dup6\n        /* \"#utility.yul\":970:992   */\n      add\n        /* \"#utility.yul\":949:1002   */\n      tag_75\n      jump\t// in\n    tag_129:\n        /* \"#utility.yul\":939:1002   */\n      swap2\n      pop\n        /* \"#utility.yul\":895:1012   */\n      pop\n        /* \"#utility.yul\":690:1019   */\n      swap3\n      swap2\n      pop\n      pop\n      jump\t// out\n        /* \"#utility.yul\":1025:1143   */\n    tag_76:\n        /* \"#utility.yul\":1112:1136   */\n      tag_131\n        /* \"#utility.yul\":1130:1135   */\n      dup2\n        /* \"#utility.yul\":1112:1136   */\n      tag_73\n      jump\t// in\n    tag_131:\n        /* \"#utility.yul\":1107:1110   */\n      dup3\n        /* \"#utility.yul\":1100:1137   */\n      mstore\n        /* \"#utility.yul\":1025:1143   */\n      pop\n      pop\n      jump\t// out\n        /* \"#utility.yul\":1149:1371   */\n    tag_14:\n        /* \"#utility.yul\":1242:1246   */\n      0x00\n        /* \"#utility.yul\":1280:1282   */\n      0x20\n        /* \"#utility.yul\":1269:1278   */\n      dup3\n        /* \"#utility.yul\":1265:1283   */\n      add\n        /* \"#utility.yul\":1257:1283   */\n      swap1\n      pop\n        /* \"#utility.yul\":1293:1364   */\n      tag_133\n        /* \"#utility.yul\":1361:1362   */\n      0x00\n        /* \"#utility.yul\":1350:1359   */\n      dup4\n        /* \"#utility.yul\":1346:1363   */\n      add\n        /* \"#utility.yul\":1337:1343   */\n      dup5\n        /* \"#utility.yul\":1293:1364   */\n      tag_76\n      jump\t// in\n    tag_133:\n        /* \"#utility.yul\":1149:1371   */\n      swap3\n      swap2\n      pop\n      pop\n      jump\t// out\n        /* \"#utility.yul\":1377:1484   */\n    tag_77:\n        /* \"#utility.yul\":1458:1459   */\n      0x03\n        /* \"#utility.yul\":1451:1456   */\n      dup2\n        /* \"#utility.yul\":1448:1460   */\n      lt\n        /* \"#utility.yul\":1438:1478   */\n      tag_135\n      jumpi\n        /* \"#utility.yul\":1474:1475   */\n      0x00\n        /* \"#utility.yul\":1471:1472   */\n      dup1\n        /* \"#utility.yul\":1464:1476   */\n      revert\n        /* \"#utility.yul\":1438:1478   */\n    tag_135:\n        /* \"#utility.yul\":1377:1484   */\n      pop\n      jump\t// out\n        /* \"#utility.yul\":1490:1645   */\n    tag_78:\n        /* \"#utility.yul\":1544:1549   */\n      0x00\n        /* \"#utility.yul\":1582:1588   */\n      dup2\n        /* \"#utility.yul\":1569:1589   */\n      calldataload\n        /* \"#utility.yul\":1560:1589   */\n      swap1\n      pop\n        /* \"#utility.yul\":1598:1639   */\n      tag_137\n        /* \"#utility.yul\":1633:1638   */\n      dup2\n        /* \"#utility.yul\":1598:1639   */\n      tag_77\n      jump\t// in\n    tag_137:\n        /* \"#utility.yul\":1490:1645   */\n      swap3\n      swap2\n      pop\n      pop\n      jump\t// out\n        /* \"#utility.yul\":1651:2141   */\n    tag_17:\n        /* \"#utility.yul\":1727:1733   */\n      0x00\n        /* \"#utility.yul\":1735:1741   */\n      dup1\n        /* \"#utility.yul\":1784:1786   */\n      0x40\n        /* \"#utility.yul\":1772:1781   */\n      dup4\n        /* \"#utility.yul\":1763:1770   */\n      dup6\n        /* \"#utility.yul\":1759:1782   */\n      sub\n        /* \"#utility.yul\":1755:1787   */\n      slt\n        /* \"#utility.yul\":1752:1871   */\n      iszero\n      tag_139\n      jumpi\n        /* \"#utility.yul\":1790:1869   */\n      tag_140\n      tag_71\n      jump\t// in\n    tag_140:\n        /* \"#utility.yul\":1752:1871   */\n    tag_139:\n        /* \"#utility.yul\":1910:1911   */\n      0x00\n        /* \"#utility.yul\":1935:1988   */\n      tag_141\n        /* \"#utility.yul\":1980:1987   */\n      dup6\n        /* \"#utility.yul\":1971:1977   */\n      dup3\n        /* \"#utility.yul\":1960:1969   */\n      dup7\n        /* \"#utility.yul\":1956:1978   */\n      add\n        /* \"#utility.yul\":1935:1988   */\n      tag_75\n      jump\t// in\n    tag_141:\n        /* \"#utility.yul\":1925:1988   */\n      swap3\n      pop\n        /* \"#utility.yul\":1881:1998   */\n      pop\n        /* \"#utility.yul\":2037:2039   */\n      0x20\n        /* \"#utility.yul\":2063:2124   */\n      tag_142\n        /* \"#utility.yul\":2116:2123   */\n      dup6\n        /* \"#utility.yul\":2107:2113   */\n      dup3\n        /* \"#utility.yul\":2096:2105   */\n      dup7\n        /* \"#utility.yul\":2092:2114   */\n      add\n        /* \"#utility.yul\":2063:2124   */\n      tag_78\n      jump\t// in\n    tag_142:\n        /* \"#utility.yul\":2053:2124   */\n      swap2\n      pop\n        /* \"#utility.yul\":2008:2134   */\n      pop\n        /* \"#utility.yul\":1651:2141   */\n      swap3\n      pop\n      swap3\n      swap1\n      pop\n      jump\t// out\n        /* \"#utility.yul\":2147:2264   */\n    tag_79:\n        /* \"#utility.yul\":2256:2257   */\n      0x00\n        /* \"#utility.yul\":2253:2254   */\n      dup1\n        /* \"#utility.yul\":2246:2258   */\n      revert\n        /* \"#utility.yul\":2270:2387   */\n    tag_80:\n        /* \"#utility.yul\":2379:2380   */\n      0x00\n        /* \"#utility.yul\":2376:2377   */\n      dup1\n        /* \"#utility.yul\":2369:2381   */\n      revert\n        /* \"#utility.yul\":2393:2495   */\n    tag_81:\n        /* \"#utility.yul\":2434:2440   */\n      0x00\n        /* \"#utility.yul\":2485:2487   */\n      0x1f\n        /* \"#utility.yul\":2481:2488   */\n      not\n        /* \"#utility.yul\":2476:2478   */\n      0x1f\n        /* \"#utility.yul\":2469:2474   */\n      dup4\n        /* \"#utility.yul\":2465:2479   */\n      add\n        /* \"#utility.yul\":2461:2489   */\n      and\n        /* \"#utility.yul\":2451:2489   */\n      swap1\n      pop\n        /* \"#utility.yul\":2393:2495   */\n      swap2\n      swap1\n      pop\n      jump\t// out\n        /* \"#utility.yul\":2501:2681   */\n    tag_82:\n        /* \"#utility.yul\":2549:2626   */\n      0x4e487b7100000000000000000000000000000000000000000000000000000000\n        /* \"#utility.yul\":2546:2547   */\n      0x00\n        /* \"#utility.yul\":2539:2627   */\n      mstore\n        /* \"#utility.yul\":2646:2650   */\n      0x41\n        /* \"#utility.yul\":2643:2644   */\n      0x04\n        /* \"#utility.yul\":2636:2651   */\n      mstore\n        /* \"#utility.yul\":2670:2674   */\n      0x24\n        /* \"#utility.yul\":2667:2668   */\n      0x00\n        /* \"#utility.yul\":2660:2675   */\n      revert\n        /* \"#utility.yul\":2687:2968   */\n    tag_83:\n        /* \"#utility.yul\":2770:2797   */\n      tag_148\n        /* \"#utility.yul\":2792:2796   */\n      dup3\n        /* \"#utility.yul\":2770:2797   */\n      tag_81\n      jump\t// in\n    tag_148:\n        /* \"#utility.yul\":2762:2768   */\n      dup2\n        /* \"#utility.yul\":2758:2798   */\n      add\n        /* \"#utility.yul\":2900:2906   */\n      dup2\n        /* \"#utility.yul\":2888:2898   */\n      dup2\n        /* \"#utility.yul\":2885:2907   */\n      lt\n        /* \"#utility.yul\":2864:2882   */\n      0xffffffffffffffff\n        /* \"#utility.yul\":2852:2862   */\n      dup3\n        /* \"#utility.yul\":2849:2883   */\n      gt\n        /* \"#utility.yul\":2846:2908   */\n      or\n        /* \"#utility.yul\":2843:2931   */\n      iszero\n      tag_149\n      jumpi\n        /* \"#utility.yul\":2911:2929   */\n      tag_150\n      tag_82\n      jump\t// in\n    tag_150:\n        /* \"#utility.yul\":2843:2931   */\n    tag_149:\n        /* \"#utility.yul\":2951:2961   */\n      dup1\n        /* \"#utility.yul\":2947:2949   */\n      0x40\n        /* \"#utility.yul\":2940:2962   */\n      mstore\n        /* \"#utility.yul\":2730:2968   */\n      pop\n        /* \"#utility.yul\":2687:2968   */\n      pop\n      pop\n      jump\t// out\n        /* \"#utility.yul\":2974:3103   */\n    tag_84:\n        /* \"#utility.yul\":3008:3014   */\n      0x00\n        /* \"#utility.yul\":3035:3055   */\n      tag_152\n      tag_70\n      jump\t// in\n    tag_152:\n        /* \"#utility.yul\":3025:3055   */\n      swap1\n      pop\n        /* \"#utility.yul\":3064:3097   */\n      tag_153\n        /* \"#utility.yul\":3092:3096   */\n      dup3\n        /* \"#utility.yul\":3084:3090   */\n      dup3\n        /* \"#utility.yul\":3064:3097   */\n      tag_83\n      jump\t// in\n    tag_153:\n        /* \"#utility.yul\":2974:3103   */\n      swap2\n      swap1\n      pop\n      jump\t// out\n        /* \"#utility.yul\":3109:3417   */\n    tag_85:\n        /* \"#utility.yul\":3171:3175   */\n      0x00\n        /* \"#utility.yul\":3261:3279   */\n      0xffffffffffffffff\n        /* \"#utility.yul\":3253:3259   */\n      dup3\n        /* \"#utility.yul\":3250:3280   */\n      gt\n        /* \"#utility.yul\":3247:3303   */\n      iszero\n      tag_155\n      jumpi\n        /* \"#utility.yul\":3283:3301   */\n      tag_156\n      tag_82\n      jump\t// in\n    tag_156:\n        /* \"#utility.yul\":3247:3303   */\n    tag_155:\n        /* \"#utility.yul\":3321:3350   */\n      tag_157\n        /* \"#utility.yul\":3343:3349   */\n      dup3\n        /* \"#utility.yul\":3321:3350   */\n      tag_81\n      jump\t// in\n    tag_157:\n        /* \"#utility.yul\":3313:3350   */\n      swap1\n      pop\n        /* \"#utility.yul\":3405:3409   */\n      0x20\n        /* \"#utility.yul\":3399:3403   */\n      dup2\n        /* \"#utility.yul\":3395:3410   */\n      add\n        /* \"#utility.yul\":3387:3410   */\n      swap1\n      pop\n        /* \"#utility.yul\":3109:3417   */\n      swap2\n      swap1\n      pop\n      jump\t// out\n        /* \"#utility.yul\":3423:3571   */\n    tag_86:\n        /* \"#utility.yul\":3521:3527   */\n      dup3\n        /* \"#utility.yul\":3516:3519   */\n      dup2\n        /* \"#utility.yul\":3511:3514   */\n      dup4\n        /* \"#utility.yul\":3498:3528   */\n      calldatacopy\n        /* \"#utility.yul\":3562:3563   */\n      0x00\n        /* \"#utility.yul\":3553:3559   */\n      dup4\n        /* \"#utility.yul\":3548:3551   */\n      dup4\n        /* \"#utility.yul\":3544:3560   */\n      add\n        /* \"#utility.yul\":3537:3564   */\n      mstore\n        /* \"#utility.yul\":3423:3571   */\n      pop\n      pop\n      pop\n      jump\t// out\n        /* \"#utility.yul\":3577:4002   */\n    tag_87:\n        /* \"#utility.yul\":3655:3660   */\n      0x00\n        /* \"#utility.yul\":3680:3746   */\n      tag_160\n        /* \"#utility.yul\":3696:3745   */\n      tag_161\n        /* \"#utility.yul\":3738:3744   */\n      dup5\n        /* \"#utility.yul\":3696:3745   */\n      tag_85\n      jump\t// in\n    tag_161:\n        /* \"#utility.yul\":3680:3746   */\n      tag_84\n      jump\t// in\n    tag_160:\n        /* \"#utility.yul\":3671:3746   */\n      swap1\n      pop\n        /* \"#utility.yul\":3769:3775   */\n      dup3\n        /* \"#utility.yul\":3762:3767   */\n      dup2\n        /* \"#utility.yul\":3755:3776   */\n      mstore\n        /* \"#utility.yul\":3807:3811   */\n      0x20\n        /* \"#utility.yul\":3800:3805   */\n      dup2\n        /* \"#utility.yul\":3796:3812   */\n      add\n        /* \"#utility.yul\":3845:3848   */\n      dup5\n        /* \"#utility.yul\":3836:3842   */\n      dup5\n        /* \"#utility.yul\":3831:3834   */\n      dup5\n        /* \"#utility.yul\":3827:3843   */\n      add\n        /* \"#utility.yul\":3824:3849   */\n      gt\n        /* \"#utility.yul\":3821:3933   */\n      iszero\n      tag_162\n      jumpi\n        /* \"#utility.yul\":3852:3931   */\n      tag_163\n      tag_80\n      jump\t// in\n    tag_163:\n        /* \"#utility.yul\":3821:3933   */\n    tag_162:\n        /* \"#utility.yul\":3942:3996   */\n      tag_164\n        /* \"#utility.yul\":3989:3995   */\n      dup5\n        /* \"#utility.yul\":3984:3987   */\n      dup3\n        /* \"#utility.yul\":3979:3982   */\n      dup6\n        /* \"#utility.yul\":3942:3996   */\n      tag_86\n      jump\t// in\n    tag_164:\n        /* \"#utility.yul\":3661:4002   */\n      pop\n        /* \"#utility.yul\":3577:4002   */\n      swap4\n      swap3\n      pop\n      pop\n      pop\n      jump\t// out\n        /* \"#utility.yul\":4022:4362   */\n    tag_88:\n        /* \"#utility.yul\":4078:4083   */\n      0x00\n        /* \"#utility.yul\":4127:4130   */\n      dup3\n        /* \"#utility.yul\":4120:4124   */\n      0x1f\n        /* \"#utility.yul\":4112:4118   */\n      dup4\n        /* \"#utility.yul\":4108:4125   */\n      add\n        /* \"#utility.yul\":4104:4131   */\n      slt\n        /* \"#utility.yul\":4094:4216   */\n      tag_166\n      jumpi\n        /* \"#utility.yul\":4135:4214   */\n      tag_167\n      tag_79\n      jump\t// in\n    tag_167:\n        /* \"#utility.yul\":4094:4216   */\n    tag_166:\n        /* \"#utility.yul\":4252:4258   */\n      dup2\n        /* \"#utility.yul\":4239:4259   */\n      calldataload\n        /* \"#utility.yul\":4277:4356   */\n      tag_168\n        /* \"#utility.yul\":4352:4355   */\n      dup5\n        /* \"#utility.yul\":4344:4350   */\n      dup3\n        /* \"#utility.yul\":4337:4341   */\n      0x20\n        /* \"#utility.yul\":4329:4335   */\n      dup7\n        /* \"#utility.yul\":4325:4342   */\n      add\n        /* \"#utility.yul\":4277:4356   */\n      tag_87\n      jump\t// in\n    tag_168:\n        /* \"#utility.yul\":4268:4356   */\n      swap2\n      pop\n        /* \"#utility.yul\":4084:4362   */\n      pop\n        /* \"#utility.yul\":4022:4362   */\n      swap3\n      swap2\n      pop\n      pop\n      jump\t// out\n        /* \"#utility.yul\":4368:4877   */\n    tag_24:\n        /* \"#utility.yul\":4437:4443   */\n      0x00\n        /* \"#utility.yul\":4486:4488   */\n      0x20\n        /* \"#utility.yul\":4474:4483   */\n      dup3\n        /* \"#utility.yul\":4465:4472   */\n      dup5\n        /* \"#utility.yul\":4461:4484   */\n      sub\n        /* \"#utility.yul\":4457:4489   */\n      slt\n        /* \"#utility.yul\":4454:4573   */\n      iszero\n      tag_170\n      jumpi\n        /* \"#utility.yul\":4492:4571   */\n      tag_171\n      tag_71\n      jump\t// in\n    tag_171:\n        /* \"#utility.yul\":4454:4573   */\n    tag_170:\n        /* \"#utility.yul\":4640:4641   */\n      0x00\n        /* \"#utility.yul\":4629:4638   */\n      dup3\n        /* \"#utility.yul\":4625:4642   */\n      add\n        /* \"#utility.yul\":4612:4643   */\n      calldataload\n        /* \"#utility.yul\":4670:4688   */\n      0xffffffffffffffff\n        /* \"#utility.yul\":4662:4668   */\n      dup2\n        /* \"#utility.yul\":4659:4689   */\n      gt\n        /* \"#utility.yul\":4656:4773   */\n      iszero\n      tag_172\n      jumpi\n        /* \"#utility.yul\":4692:4771   */\n      tag_173\n      tag_72\n      jump\t// in\n    tag_173:\n        /* \"#utility.yul\":4656:4773   */\n    tag_172:\n        /* \"#utility.yul\":4797:4860   */\n      tag_174\n        /* \"#utility.yul\":4852:4859   */\n      dup5\n        /* \"#utility.yul\":4843:4849   */\n      dup3\n        /* \"#utility.yul\":4832:4841   */\n      dup6\n        /* \"#utility.yul\":4828:4850   */\n      add\n        /* \"#utility.yul\":4797:4860   */\n      tag_88\n      jump\t// in\n    tag_174:\n        /* \"#utility.yul\":4787:4860   */\n      swap2\n      pop\n        /* \"#utility.yul\":4583:4870   */\n      pop\n        /* \"#utility.yul\":4368:4877   */\n      swap3\n      swap2\n      pop\n      pop\n      jump\t// out\n        /* \"#utility.yul\":4883:4982   */\n    tag_89:\n        /* \"#utility.yul\":4935:4941   */\n      0x00\n        /* \"#utility.yul\":4969:4974   */\n      dup2\n        /* \"#utility.yul\":4963:4975   */\n      mload\n        /* \"#utility.yul\":4953:4975   */\n      swap1\n      pop\n        /* \"#utility.yul\":4883:4982   */\n      swap2\n      swap1\n      pop\n      jump\t// out\n        /* \"#utility.yul\":4988:5157   */\n    tag_90:\n        /* \"#utility.yul\":5072:5083   */\n      0x00\n        /* \"#utility.yul\":5106:5112   */\n      dup3\n        /* \"#utility.yul\":5101:5104   */\n      dup3\n        /* \"#utility.yul\":5094:5113   */\n      mstore\n        /* \"#utility.yul\":5146:5150   */\n      0x20\n        /* \"#utility.yul\":5141:5144   */\n      dup3\n        /* \"#utility.yul\":5137:5151   */\n      add\n        /* \"#utility.yul\":5122:5151   */\n      swap1\n      pop\n        /* \"#utility.yul\":4988:5157   */\n      swap3\n      swap2\n      pop\n      pop\n      jump\t// out\n        /* \"#utility.yul\":5163:5302   */\n    tag_91:\n        /* \"#utility.yul\":5252:5258   */\n      dup3\n        /* \"#utility.yul\":5247:5250   */\n      dup2\n        /* \"#utility.yul\":5242:5245   */\n      dup4\n        /* \"#utility.yul\":5236:5259   */\n      mcopy\n        /* \"#utility.yul\":5293:5294   */\n      0x00\n        /* \"#utility.yul\":5284:5290   */\n      dup4\n        /* \"#utility.yul\":5279:5282   */\n      dup4\n        /* \"#utility.yul\":5275:5291   */\n      add\n        /* \"#utility.yul\":5268:5295   */\n      mstore\n        /* \"#utility.yul\":5163:5302   */\n      pop\n      pop\n      pop\n      jump\t// out\n        /* \"#utility.yul\":5308:5685   */\n    tag_92:\n        /* \"#utility.yul\":5396:5399   */\n      0x00\n        /* \"#utility.yul\":5424:5463   */\n      tag_179\n        /* \"#utility.yul\":5457:5462   */\n      dup3\n        /* \"#utility.yul\":5424:5463   */\n      tag_89\n      jump\t// in\n    tag_179:\n        /* \"#utility.yul\":5479:5550   */\n      tag_180\n        /* \"#utility.yul\":5543:5549   */\n      dup2\n        /* \"#utility.yul\":5538:5541   */\n      dup6\n        /* \"#utility.yul\":5479:5550   */\n      tag_90\n      jump\t// in\n    tag_180:\n        /* \"#utility.yul\":5472:5550   */\n      swap4\n      pop\n        /* \"#utility.yul\":5559:5624   */\n      tag_181\n        /* \"#utility.yul\":5617:5623   */\n      dup2\n        /* \"#utility.yul\":5612:5615   */\n      dup6\n        /* \"#utility.yul\":5605:5609   */\n      0x20\n        /* \"#utility.yul\":5598:5603   */\n      dup7\n        /* \"#utility.yul\":5594:5610   */\n      add\n        /* \"#utility.yul\":5559:5624   */\n      tag_91\n      jump\t// in\n    tag_181:\n        /* \"#utility.yul\":5649:5678   */\n      tag_182\n        /* \"#utility.yul\":5671:5677   */\n      dup2\n        /* \"#utility.yul\":5649:5678   */\n      tag_81\n      jump\t// in\n    tag_182:\n        /* \"#utility.yul\":5644:5647   */\n      dup5\n        /* \"#utility.yul\":5640:5679   */\n      add\n        /* \"#utility.yul\":5633:5679   */\n      swap2\n      pop\n        /* \"#utility.yul\":5400:5685   */\n      pop\n        /* \"#utility.yul\":5308:5685   */\n      swap3\n      swap2\n      pop\n      pop\n      jump\t// out\n        /* \"#utility.yul\":5691:5871   */\n    tag_43:\n        /* \"#utility.yul\":5739:5816   */\n      0x4e487b7100000000000000000000000000000000000000000000000000000000\n        /* \"#utility.yul\":5736:5737   */\n      0x00\n        /* \"#utility.yul\":5729:5817   */\n      mstore\n        /* \"#utility.yul\":5836:5840   */\n      0x21\n        /* \"#utility.yul\":5833:5834   */\n      0x04\n        /* \"#utility.yul\":5826:5841   */\n      mstore\n        /* \"#utility.yul\":5860:5864   */\n      0x24\n        /* \"#utility.yul\":5857:5858   */\n      0x00\n        /* \"#utility.yul\":5850:5865   */\n      revert\n        /* \"#utility.yul\":5877:5990   */\n    tag_93:\n        /* \"#utility.yul\":5958:5959   */\n      0x03\n        /* \"#utility.yul\":5951:5956   */\n      dup2\n        /* \"#utility.yul\":5948:5960   */\n      lt\n        /* \"#utility.yul\":5938:5984   */\n      tag_185\n      jumpi\n        /* \"#utility.yul\":5964:5982   */\n      tag_186\n      tag_43\n      jump\t// in\n    tag_186:\n        /* \"#utility.yul\":5938:5984   */\n    tag_185:\n        /* \"#utility.yul\":5877:5990   */\n      pop\n      jump\t// out\n        /* \"#utility.yul\":5996:6123   */\n    tag_94:\n        /* \"#utility.yul\":6041:6048   */\n      0x00\n        /* \"#utility.yul\":6070:6075   */\n      dup2\n        /* \"#utility.yul\":6059:6075   */\n      swap1\n      pop\n        /* \"#utility.yul\":6076:6117   */\n      tag_188\n        /* \"#utility.yul\":6111:6116   */\n      dup3\n        /* \"#utility.yul\":6076:6117   */\n      tag_93\n      jump\t// in\n    tag_188:\n        /* \"#utility.yul\":5996:6123   */\n      swap2\n      swap1\n      pop\n      jump\t// out\n        /* \"#utility.yul\":6129:6256   */\n    tag_95:\n        /* \"#utility.yul\":6185:6194   */\n      0x00\n        /* \"#utility.yul\":6218:6250   */\n      tag_190\n        /* \"#utility.yul\":6244:6249   */\n      dup3\n        /* \"#utility.yul\":6218:6250   */\n      tag_94\n      jump\t// in\n    tag_190:\n        /* \"#utility.yul\":6205:6250   */\n      swap1\n      pop\n        /* \"#utility.yul\":6129:6256   */\n      swap2\n      swap1\n      pop\n      jump\t// out\n        /* \"#utility.yul\":6262:6405   */\n    tag_96:\n        /* \"#utility.yul\":6355:6398   */\n      tag_192\n        /* \"#utility.yul\":6392:6397   */\n      dup2\n        /* \"#utility.yul\":6355:6398   */\n      tag_95\n      jump\t// in\n    tag_192:\n        /* \"#utility.yul\":6350:6353   */\n      dup3\n        /* \"#utility.yul\":6343:6399   */\n      mstore\n        /* \"#utility.yul\":6262:6405   */\n      pop\n      pop\n      jump\t// out\n        /* \"#utility.yul\":6411:6956   */\n    tag_30:\n        /* \"#utility.yul\":6586:6590   */\n      0x00\n        /* \"#utility.yul\":6624:6626   */\n      0x60\n        /* \"#utility.yul\":6613:6622   */\n      dup3\n        /* \"#utility.yul\":6609:6627   */\n      add\n        /* \"#utility.yul\":6601:6627   */\n      swap1\n      pop\n        /* \"#utility.yul\":6637:6708   */\n      tag_194\n        /* \"#utility.yul\":6705:6706   */\n      0x00\n        /* \"#utility.yul\":6694:6703   */\n      dup4\n        /* \"#utility.yul\":6690:6707   */\n      add\n        /* \"#utility.yul\":6681:6687   */\n      dup7\n        /* \"#utility.yul\":6637:6708   */\n      tag_76\n      jump\t// in\n    tag_194:\n        /* \"#utility.yul\":6755:6764   */\n      dup2\n        /* \"#utility.yul\":6749:6753   */\n      dup2\n        /* \"#utility.yul\":6745:6765   */\n      sub\n        /* \"#utility.yul\":6740:6742   */\n      0x20\n        /* \"#utility.yul\":6729:6738   */\n      dup4\n        /* \"#utility.yul\":6725:6743   */\n      add\n        /* \"#utility.yul\":6718:6766   */\n      mstore\n        /* \"#utility.yul\":6783:6861   */\n      tag_195\n        /* \"#utility.yul\":6856:6860   */\n      dup2\n        /* \"#utility.yul\":6847:6853   */\n      dup6\n        /* \"#utility.yul\":6783:6861   */\n      tag_92\n      jump\t// in\n    tag_195:\n        /* \"#utility.yul\":6775:6861   */\n      swap1\n      pop\n        /* \"#utility.yul\":6871:6949   */\n      tag_196\n        /* \"#utility.yul\":6945:6947   */\n      0x40\n        /* \"#utility.yul\":6934:6943   */\n      dup4\n        /* \"#utility.yul\":6930:6948   */\n      add\n        /* \"#utility.yul\":6921:6927   */\n      dup5\n        /* \"#utility.yul\":6871:6949   */\n      tag_96\n      jump\t// in\n    tag_196:\n        /* \"#utility.yul\":6411:6956   */\n      swap5\n      swap4\n      pop\n      pop\n      pop\n      pop\n      jump\t// out\n        /* \"#utility.yul\":6962:7131   */\n    tag_97:\n        /* \"#utility.yul\":7102:7123   */\n      0x546f646f20646f6573206e6f7420657869737400000000000000000000000000\n        /* \"#utility.yul\":7098:7099   */\n      0x00\n        /* \"#utility.yul\":7090:7096   */\n      dup3\n        /* \"#utility.yul\":7086:7100   */\n      add\n        /* \"#utility.yul\":7079:7124   */\n      mstore\n        /* \"#utility.yul\":6962:7131   */\n      pop\n      jump\t// out\n        /* \"#utility.yul\":7137:7503   */\n    tag_98:\n        /* \"#utility.yul\":7279:7282   */\n      0x00\n        /* \"#utility.yul\":7300:7367   */\n      tag_199\n        /* \"#utility.yul\":7364:7366   */\n      0x13\n        /* \"#utility.yul\":7359:7362   */\n      dup4\n        /* \"#utility.yul\":7300:7367   */\n      tag_90\n      jump\t// in\n    tag_199:\n        /* \"#utility.yul\":7293:7367   */\n      swap2\n      pop\n        /* \"#utility.yul\":7376:7469   */\n      tag_200\n        /* \"#utility.yul\":7465:7468   */\n      dup3\n        /* \"#utility.yul\":7376:7469   */\n      tag_97\n      jump\t// in\n    tag_200:\n        /* \"#utility.yul\":7494:7496   */\n      0x20\n        /* \"#utility.yul\":7489:7492   */\n      dup3\n        /* \"#utility.yul\":7485:7497   */\n      add\n        /* \"#utility.yul\":7478:7497   */\n      swap1\n      pop\n        /* \"#utility.yul\":7137:7503   */\n      swap2\n      swap1\n      pop\n      jump\t// out\n        /* \"#utility.yul\":7509:7928   */\n    tag_40:\n        /* \"#utility.yul\":7675:7679   */\n      0x00\n        /* \"#utility.yul\":7713:7715   */\n      0x20\n        /* \"#utility.yul\":7702:7711   */\n      dup3\n        /* \"#utility.yul\":7698:7716   */\n      add\n        /* \"#utility.yul\":7690:7716   */\n      swap1\n      pop\n        /* \"#utility.yul\":7762:7771   */\n      dup2\n        /* \"#utility.yul\":7756:7760   */\n      dup2\n        /* \"#utility.yul\":7752:7772   */\n      sub\n        /* \"#utility.yul\":7748:7749   */\n      0x00\n        /* \"#utility.yul\":7737:7746   */\n      dup4\n        /* \"#utility.yul\":7733:7750   */\n      add\n        /* \"#utility.yul\":7726:7773   */\n      mstore\n        /* \"#utility.yul\":7790:7921   */\n      tag_202\n        /* \"#utility.yul\":7916:7920   */\n      dup2\n        /* \"#utility.yul\":7790:7921   */\n      tag_98\n      jump\t// in\n    tag_202:\n        /* \"#utility.yul\":7782:7921   */\n      swap1\n      pop\n        /* \"#utility.yul\":7509:7928   */\n      swap2\n      swap1\n      pop\n      jump\t// out\n        /* \"#utility.yul\":7934:8114   */\n    tag_99:\n        /* \"#utility.yul\":7982:8059   */\n      0x4e487b7100000000000000000000000000000000000000000000000000000000\n        /* \"#utility.yul\":7979:7980   */\n      0x00\n        /* \"#utility.yul\":7972:8060   */\n      mstore\n        /* \"#utility.yul\":8079:8083   */\n      0x22\n        /* \"#utility.yul\":8076:8077   */\n      0x04\n        /* \"#utility.yul\":8069:8084   */\n      mstore\n        /* \"#utility.yul\":8103:8107   */\n      0x24\n        /* \"#utility.yul\":8100:8101   */\n      0x00\n        /* \"#utility.yul\":8093:8108   */\n      revert\n        /* \"#utility.yul\":8120:8440   */\n    tag_57:\n        /* \"#utility.yul\":8164:8170   */\n      0x00\n        /* \"#utility.yul\":8201:8202   */\n      0x02\n        /* \"#utility.yul\":8195:8199   */\n      dup3\n        /* \"#utility.yul\":8191:8203   */\n      div\n        /* \"#utility.yul\":8181:8203   */\n      swap1\n      pop\n        /* \"#utility.yul\":8248:8249   */\n      0x01\n        /* \"#utility.yul\":8242:8246   */\n      dup3\n        /* \"#utility.yul\":8238:8250   */\n      and\n        /* \"#utility.yul\":8269:8287   */\n      dup1\n        /* \"#utility.yul\":8259:8340   */\n      tag_205\n      jumpi\n        /* \"#utility.yul\":8325:8329   */\n      0x7f\n        /* \"#utility.yul\":8317:8323   */\n      dup3\n        /* \"#utility.yul\":8313:8330   */\n      and\n        /* \"#utility.yul\":8303:8330   */\n      swap2\n      pop\n        /* \"#utility.yul\":8259:8340   */\n    tag_205:\n        /* \"#utility.yul\":8387:8389   */\n      0x20\n        /* \"#utility.yul\":8379:8385   */\n      dup3\n        /* \"#utility.yul\":8376:8390   */\n      lt\n        /* \"#utility.yul\":8356:8374   */\n      dup2\n        /* \"#utility.yul\":8353:8391   */\n      sub\n        /* \"#utility.yul\":8350:8434   */\n      tag_206\n      jumpi\n        /* \"#utility.yul\":8406:8424   */\n      tag_207\n      tag_99\n      jump\t// in\n    tag_207:\n        /* \"#utility.yul\":8350:8434   */\n    tag_206:\n        /* \"#utility.yul\":8171:8440   */\n      pop\n        /* \"#utility.yul\":8120:8440   */\n      swap2\n      swap1\n      pop\n      jump\t// out\n        /* \"#utility.yul\":8446:8587   */\n    tag_100:\n        /* \"#utility.yul\":8495:8499   */\n      0x00\n        /* \"#utility.yul\":8518:8521   */\n      dup2\n        /* \"#utility.yul\":8510:8521   */\n      swap1\n      pop\n        /* \"#utility.yul\":8541:8544   */\n      dup2\n        /* \"#utility.yul\":8538:8539   */\n      0x00\n        /* \"#utility.yul\":8531:8545   */\n      mstore\n        /* \"#utility.yul\":8575:8579   */\n      0x20\n        /* \"#utility.yul\":8572:8573   */\n      0x00\n        /* \"#utility.yul\":8562:8580   */\n      keccak256\n        /* \"#utility.yul\":8554:8580   */\n      swap1\n      pop\n        /* \"#utility.yul\":8446:8587   */\n      swap2\n      swap1\n      pop\n      jump\t// out\n        /* \"#utility.yul\":8593:8686   */\n    tag_101:\n        /* \"#utility.yul\":8630:8636   */\n      0x00\n        /* \"#utility.yul\":8677:8679   */\n      0x20\n        /* \"#utility.yul\":8672:8674   */\n      0x1f\n        /* \"#utility.yul\":8665:8670   */\n      dup4\n        /* \"#utility.yul\":8661:8675   */\n      add\n        /* \"#utility.yul\":8657:8680   */\n      div\n        /* \"#utility.yul\":8647:8680   */\n      swap1\n      pop\n        /* \"#utility.yul\":8593:8686   */\n      swap2\n      swap1\n      pop\n      jump\t// out\n        /* \"#utility.yul\":8692:8799   */\n    tag_102:\n        /* \"#utility.yul\":8736:8744   */\n      0x00\n        /* \"#utility.yul\":8786:8791   */\n      dup3\n        /* \"#utility.yul\":8780:8784   */\n      dup3\n        /* \"#utility.yul\":8776:8792   */\n      shl\n        /* \"#utility.yul\":8755:8792   */\n      swap1\n      pop\n        /* \"#utility.yul\":8692:8799   */\n      swap3\n      swap2\n      pop\n      pop\n      jump\t// out\n        /* \"#utility.yul\":8805:9198   */\n    tag_103:\n        /* \"#utility.yul\":8874:8880   */\n      0x00\n        /* \"#utility.yul\":8924:8925   */\n      0x08\n        /* \"#utility.yul\":8912:8922   */\n      dup4\n        /* \"#utility.yul\":8908:8926   */\n      mul\n        /* \"#utility.yul\":8947:9044   */\n      tag_212\n        /* \"#utility.yul\":8977:9043   */\n      0xffffffffffffffffffffffffffffffffffffffffffffffffffffffffffffffff\n        /* \"#utility.yul\":8966:8975   */\n      dup3\n        /* \"#utility.yul\":8947:9044   */\n      tag_102\n      jump\t// in\n    tag_212:\n        /* \"#utility.yul\":9065:9104   */\n      tag_213\n        /* \"#utility.yul\":9095:9103   */\n      dup7\n        /* \"#utility.yul\":9084:9093   */\n      dup4\n        /* \"#utility.yul\":9065:9104   */\n      tag_102\n      jump\t// in\n    tag_213:\n        /* \"#utility.yul\":9053:9104   */\n      swap6\n      pop\n        /* \"#utility.yul\":9137:9141   */\n      dup1\n        /* \"#utility.yul\":9133:9142   */\n      not\n        /* \"#utility.yul\":9126:9131   */\n      dup5\n        /* \"#utility.yul\":9122:9143   */\n      and\n        /* \"#utility.yul\":9113:9143   */\n      swap4\n      pop\n        /* \"#utility.yul\":9186:9190   */\n      dup1\n        /* \"#utility.yul\":9176:9184   */\n      dup7\n        /* \"#utility.yul\":9172:9191   */\n      and\n        /* \"#utility.yul\":9165:9170   */\n      dup5\n        /* \"#utility.yul\":9162:9192   */\n      or\n        /* \"#utility.yul\":9152:9192   */\n      swap3\n      pop\n        /* \"#utility.yul\":8881:9198   */\n      pop\n      pop\n        /* \"#utility.yul\":8805:9198   */\n      swap4\n      swap3\n      pop\n      pop\n      pop\n      jump\t// out\n        /* \"#utility.yul\":9204:9264   */\n    tag_104:\n        /* \"#utility.yul\":9232:9235   */\n      0x00\n        /* \"#utility.yul\":9253:9258   */\n      dup2\n        /* \"#utility.yul\":9246:9258   */\n      swap1\n      pop\n        /* \"#utility.yul\":9204:9264   */\n      swap2\n      swap1\n      pop\n      jump\t// out\n        /* \"#utility.yul\":9270:9412   */\n    tag_105:\n        /* \"#utility.yul\":9320:9329   */\n      0x00\n        /* \"#utility.yul\":9353:9406   */\n      tag_216\n        /* \"#utility.yul\":9371:9405   */\n      tag_217\n        /* \"#utility.yul\":9380:9404   */\n      tag_218\n        /* \"#utility.yul\":9398:9403   */\n      dup5\n        /* \"#utility.yul\":9380:9404   */\n      tag_73\n      jump\t// in\n    tag_218:\n        /* \"#utility.yul\":9371:9405   */\n      tag_104\n      jump\t// in\n    tag_217:\n        /* \"#utility.yul\":9353:9406   */\n      tag_73\n      jump\t// in\n    tag_216:\n        /* \"#utility.yul\":9340:9406   */\n      swap1\n      pop\n        /* \"#utility.yul\":9270:9412   */\n      swap2\n      swap1\n      pop\n      jump\t// out\n        /* \"#utility.yul\":9418:9493   */\n    tag_106:\n        /* \"#utility.yul\":9461:9464   */\n      0x00\n        /* \"#utility.yul\":9482:9487   */\n      dup2\n        /* \"#utility.yul\":9475:9487   */\n      swap1\n      pop\n        /* \"#utility.yul\":9418:9493   */\n      swap2\n      swap1\n      pop\n      jump\t// out\n        /* \"#utility.yul\":9499:9768   */\n    tag_107:\n        /* \"#utility.yul\":9609:9648   */\n      tag_221\n        /* \"#utility.yul\":9640:9647   */\n      dup4\n        /* \"#utility.yul\":9609:9648   */\n      tag_105\n      jump\t// in\n    tag_221:\n        /* \"#utility.yul\":9670:9761   */\n      tag_222\n        /* \"#utility.yul\":9719:9760   */\n      tag_223\n        /* \"#utility.yul\":9743:9759   */\n      dup3\n        /* \"#utility.yul\":9719:9760   */\n      tag_106\n      jump\t// in\n    tag_223:\n        /* \"#utility.yul\":9711:9717   */\n      dup5\n        /* \"#utility.yul\":9704:9708   */\n      dup5\n        /* \"#utility.yul\":9698:9709   */\n      sload\n        /* \"#utility.yul\":9670:9761   */\n      tag_103\n      jump\t// in\n    tag_222:\n        /* \"#utility.yul\":9664:9668   */\n      dup3\n        /* \"#utility.yul\":9657:9762   */\n      sstore\n        /* \"#utility.yul\":9575:9768   */\n      pop\n        /* \"#utility.yul\":9499:9768   */\n      pop\n      pop\n      pop\n      jump\t// out\n        /* \"#utility.yul\":9774:9847   */\n    tag_108:\n        /* \"#utility.yul\":9819:9822   */\n      0x00\n        /* \"#utility.yul\":9774:9847   */\n      swap1\n      jump\t// out\n        /* \"#utility.yul\":9853:10042   */\n    tag_109:\n        /* \"#utility.yul\":9930:9962   */\n      tag_226\n      tag_108\n      jump\t// in\n    tag_226:\n        /* \"#utility.yul\":9971:10036   */\n      tag_227\n        /* \"#utility.yul\":10029:10035   */\n      dup2\n        /* \"#utility.yul\":10021:10027   */\n      dup5\n        /* \"#utility.yul\":10015:10019   */\n      dup5\n        /* \"#utility.yul\":9971:10036   */\n      tag_107\n      jump\t// in\n    tag_227:\n        /* \"#utility.yul\":9906:10042   */\n      pop\n        /* \"#utility.yul\":9853:10042   */\n      pop\n      pop\n      jump\t// out\n        /* \"#utility.yul\":10048:10234   */\n    tag_110:\n        /* \"#utility.yul\":10108:10228   */\n    tag_229:\n        /* \"#utility.yul\":10125:10128   */\n      dup2\n        /* \"#utility.yul\":10118:10123   */\n      dup2\n        /* \"#utility.yul\":10115:10129   */\n      lt\n        /* \"#utility.yul\":10108:10228   */\n      iszero\n      tag_231\n      jumpi\n        /* \"#utility.yul\":10179:10218   */\n      tag_232\n        /* \"#utility.yul\":10216:10217   */\n      0x00\n        /* \"#utility.yul\":10209:10214   */\n      dup3\n        /* \"#utility.yul\":10179:10218   */\n      tag_109\n      jump\t// in\n    tag_232:\n        /* \"#utility.yul\":10152:10153   */\n      0x01\n        /* \"#utility.yul\":10145:10150   */\n      dup2\n        /* \"#utility.yul\":10141:10154   */\n      add\n        /* \"#utility.yul\":10132:10154   */\n      swap1\n      pop\n        /* \"#utility.yul\":10108:10228   */\n      jump(tag_229)\n    tag_231:\n        /* \"#utility.yul\":10048:10234   */\n      pop\n      pop\n      jump\t// out\n        /* \"#utility.yul\":10240:10783   */\n    tag_111:\n        /* \"#utility.yul\":10341:10343   */\n      0x1f\n        /* \"#utility.yul\":10336:10339   */\n      dup3\n        /* \"#utility.yul\":10333:10344   */\n      gt\n        /* \"#utility.yul\":10330:10776   */\n      iszero\n      tag_234\n      jumpi\n        /* \"#utility.yul\":10375:10413   */\n      tag_235\n        /* \"#utility.yul\":10407:10412   */\n      dup2\n        /* \"#utility.yul\":10375:10413   */\n      tag_100\n      jump\t// in\n    tag_235:\n        /* \"#utility.yul\":10459:10488   */\n      tag_236\n        /* \"#utility.yul\":10477:10487   */\n      dup5\n        /* \"#utility.yul\":10459:10488   */\n      tag_101\n      jump\t// in\n    tag_236:\n        /* \"#utility.yul\":10449:10457   */\n      dup2\n        /* \"#utility.yul\":10445:10489   */\n      add\n        /* \"#utility.yul\":10642:10644   */\n      0x20\n        /* \"#utility.yul\":10630:10640   */\n      dup6\n        /* \"#utility.yul\":10627:10645   */\n      lt\n        /* \"#utility.yul\":10624:10673   */\n      iszero\n      tag_237\n      jumpi\n        /* \"#utility.yul\":10663:10671   */\n      dup2\n        /* \"#utility.yul\":10648:10671   */\n      swap1\n      pop\n        /* \"#utility.yul\":10624:10673   */\n    tag_237:\n        /* \"#utility.yul\":10686:10766   */\n      tag_238\n        /* \"#utility.yul\":10742:10764   */\n      tag_239\n        /* \"#utility.yul\":10760:10763   */\n      dup6\n        /* \"#utility.yul\":10742:10764   */\n      tag_101\n      jump\t// in\n    tag_239:\n        /* \"#utility.yul\":10732:10740   */\n      dup4\n        /* \"#utility.yul\":10728:10765   */\n      add\n        /* \"#utility.yul\":10715:10726   */\n      dup3\n        /* \"#utility.yul\":10686:10766   */\n      tag_110\n      jump\t// in\n    tag_238:\n        /* \"#utility.yul\":10345:10776   */\n      pop\n      pop\n        /* \"#utility.yul\":10330:10776   */\n    tag_234:\n        /* \"#utility.yul\":10240:10783   */\n      pop\n      pop\n      pop\n      jump\t// out\n        /* \"#utility.yul\":10789:10906   */\n    tag_112:\n        /* \"#utility.yul\":10843:10851   */\n      0x00\n        /* \"#utility.yul\":10893:10898   */\n      dup3\n        /* \"#utility.yul\":10887:10891   */\n      dup3\n        /* \"#utility.yul\":10883:10899   */\n      shr\n        /* \"#utility.yul\":10862:10899   */\n      swap1\n      pop\n        /* \"#utility.yul\":10789:10906   */\n      swap3\n      swap2\n      pop\n      pop\n      jump\t// out\n        /* \"#utility.yul\":10912:11081   */\n    tag_113:\n        /* \"#utility.yul\":10956:10962   */\n      0x00\n        /* \"#utility.yul\":10989:11040   */\n      tag_242\n        /* \"#utility.yul\":11037:11038   */\n      0x00\n        /* \"#utility.yul\":11033:11039   */\n      not\n        /* \"#utility.yul\":11025:11030   */\n      dup5\n        /* \"#utility.yul\":11022:11023   */\n      0x08\n        /* \"#utility.yul\":11018:11031   */\n      mul\n        /* \"#utility.yul\":10989:11040   */\n      tag_112\n      jump\t// in\n    tag_242:\n        /* \"#utility.yul\":10985:11041   */\n      not\n        /* \"#utility.yul\":11070:11074   */\n      dup1\n        /* \"#utility.yul\":11064:11068   */\n      dup4\n        /* \"#utility.yul\":11060:11075   */\n      and\n        /* \"#utility.yul\":11050:11075   */\n      swap2\n      pop\n        /* \"#utility.yul\":10963:11081   */\n      pop\n        /* \"#utility.yul\":10912:11081   */\n      swap3\n      swap2\n      pop\n      pop\n      jump\t// out\n        /* \"#utility.yul\":11086:11381   */\n    tag_114:\n        /* \"#utility.yul\":11162:11166   */\n      0x00\n        /* \"#utility.yul\":11308:11337   */\n      tag_244\n        /* \"#utility.yul\":11333:11336   */\n      dup4\n        /* \"#utility.yul\":11327:11331   */\n      dup4\n        /* \"#utility.yul\":11308:11337   */\n      tag_113\n      jump\t// in\n    tag_244:\n        /* \"#utility.yul\":11300:11337   */\n      swap2\n      pop\n        /* \"#utility.yul\":11370:11373   */\n      dup3\n        /* \"#utility.yul\":11367:11368   */\n      0x02\n        /* \"#utility.yul\":11363:11374   */\n      mul\n        /* \"#utility.yul\":11357:11361   */\n      dup3\n        /* \"#utility.yul\":11354:11375   */\n      or\n        /* \"#utility.yul\":11346:11375   */\n      swap1\n      pop\n        /* \"#utility.yul\":11086:11381   */\n      swap3\n      swap2\n      pop\n      pop\n      jump\t// out\n        /* \"#utility.yul\":11386:12781   */\n    tag_48:\n        /* \"#utility.yul\":11503:11540   */\n      tag_246\n        /* \"#utility.yul\":11536:11539   */\n      dup3\n        /* \"#utility.yul\":11503:11540   */\n      tag_89\n      jump\t// in\n    tag_246:\n        /* \"#utility.yul\":11605:11623   */\n      0xffffffffffffffff\n        /* \"#utility.yul\":11597:11603   */\n      dup2\n        /* \"#utility.yul\":11594:11624   */\n      gt\n        /* \"#utility.yul\":11591:11647   */\n      iszero\n      tag_247\n      jumpi\n        /* \"#utility.yul\":11627:11645   */\n      tag_248\n      tag_82\n      jump\t// in\n    tag_248:\n        /* \"#utility.yul\":11591:11647   */\n    tag_247:\n        /* \"#utility.yul\":11671:11709   */\n      tag_249\n        /* \"#utility.yul\":11703:11707   */\n      dup3\n        /* \"#utility.yul\":11697:11708   */\n      sload\n        /* \"#utility.yul\":11671:11709   */\n      tag_57\n      jump\t// in\n    tag_249:\n        /* \"#utility.yul\":11756:11823   */\n      tag_250\n        /* \"#utility.yul\":11816:11822   */\n      dup3\n        /* \"#utility.yul\":11808:11814   */\n      dup3\n        /* \"#utility.yul\":11802:11806   */\n      dup6\n        /* \"#utility.yul\":11756:11823   */\n      tag_111\n      jump\t// in\n    tag_250:\n        /* \"#utility.yul\":11850:11851   */\n      0x00\n        /* \"#utility.yul\":11874:11878   */\n      0x20\n        /* \"#utility.yul\":11861:11878   */\n      swap1\n      pop\n        /* \"#utility.yul\":11906:11908   */\n      0x1f\n        /* \"#utility.yul\":11898:11904   */\n      dup4\n        /* \"#utility.yul\":11895:11909   */\n      gt\n        /* \"#utility.yul\":11923:11924   */\n      0x01\n        /* \"#utility.yul\":11918:12536   */\n      dup2\n      eq\n      tag_252\n      jumpi\n        /* \"#utility.yul\":12580:12581   */\n      0x00\n        /* \"#utility.yul\":12597:12603   */\n      dup5\n        /* \"#utility.yul\":12594:12671   */\n      iszero\n      tag_253\n      jumpi\n        /* \"#utility.yul\":12646:12655   */\n      dup3\n        /* \"#utility.yul\":12641:12644   */\n      dup8\n        /* \"#utility.yul\":12637:12656   */\n      add\n        /* \"#utility.yul\":12631:12657   */\n      mload\n        /* \"#utility.yul\":12622:12657   */\n      swap1\n      pop\n        /* \"#utility.yul\":12594:12671   */\n    tag_253:\n        /* \"#utility.yul\":12697:12764   */\n      tag_254\n        /* \"#utility.yul\":12757:12763   */\n      dup6\n        /* \"#utility.yul\":12750:12755   */\n      dup3\n        /* \"#utility.yul\":12697:12764   */\n      tag_114\n      jump\t// in\n    tag_254:\n        /* \"#utility.yul\":12691:12695   */\n      dup7\n        /* \"#utility.yul\":12684:12765   */\n      sstore\n        /* \"#utility.yul\":12553:12775   */\n      pop\n        /* \"#utility.yul\":11888:12775   */\n      jump(tag_251)\n        /* \"#utility.yul\":11918:12536   */\n    tag_252:\n        /* \"#utility.yul\":11970:11974   */\n      0x1f\n        /* \"#utility.yul\":11966:11975   */\n      not\n        /* \"#utility.yul\":11958:11964   */\n      dup5\n        /* \"#utility.yul\":11954:11976   */\n      and\n        /* \"#utility.yul\":12004:12041   */\n      tag_255\n        /* \"#utility.yul\":12036:12040   */\n      dup7\n        /* \"#utility.yul\":12004:12041   */\n      tag_100\n      jump\t// in\n    tag_255:\n        /* \"#utility.yul\":12063:12064   */\n      0x00\n        /* \"#utility.yul\":12077:12285   */\n    tag_256:\n        /* \"#utility.yul\":12091:12098   */\n      dup3\n        /* \"#utility.yul\":12088:12089   */\n      dup2\n        /* \"#utility.yul\":12085:12099   */\n      lt\n        /* \"#utility.yul\":12077:12285   */\n      iszero\n      tag_258\n      jumpi\n        /* \"#utility.yul\":12170:12179   */\n      dup5\n        /* \"#utility.yul\":12165:12168   */\n      dup10\n        /* \"#utility.yul\":12161:12180   */\n      add\n        /* \"#utility.yul\":12155:12181   */\n      mload\n        /* \"#utility.yul\":12147:12153   */\n      dup3\n        /* \"#utility.yul\":12140:12182   */\n      sstore\n        /* \"#utility.yul\":12221:12222   */\n      0x01\n        /* \"#utility.yul\":12213:12219   */\n      dup3\n        /* \"#utility.yul\":12209:12223   */\n      add\n        /* \"#utility.yul\":12199:12223   */\n      swap2\n      pop\n        /* \"#utility.yul\":12268:12270   */\n      0x20\n        /* \"#utility.yul\":12257:12266   */\n      dup6\n        /* \"#utility.yul\":12253:12271   */\n      add\n        /* \"#utility.yul\":12240:12271   */\n      swap5\n      pop\n        /* \"#utility.yul\":12114:12118   */\n      0x20\n        /* \"#utility.yul\":12111:12112   */\n      dup2\n        /* \"#utility.yul\":12107:12119   */\n      add\n        /* \"#utility.yul\":12102:12119   */\n      swap1\n      pop\n        /* \"#utility.yul\":12077:12285   */\n      jump(tag_256)\n    tag_258:\n        /* \"#utility.yul\":12313:12319   */\n      dup7\n        /* \"#utility.yul\":12304:12311   */\n      dup4\n        /* \"#utility.yul\":12301:12320   */\n      lt\n        /* \"#utility.yul\":12298:12477   */\n      iszero\n      tag_259\n      jumpi\n        /* \"#utility.yul\":12371:12380   */\n      dup5\n        /* \"#utility.yul\":12366:12369   */\n      dup10\n        /* \"#utility.yul\":12362:12381   */\n      add\n        /* \"#utility.yul\":12356:12382   */\n      mload\n        /* \"#utility.yul\":12414:12462   */\n      tag_260\n        /* \"#utility.yul\":12456:12460   */\n      0x1f\n        /* \"#utility.yul\":12448:12454   */\n      dup10\n        /* \"#utility.yul\":12444:12461   */\n      and\n        /* \"#utility.yul\":12433:12442   */\n      dup3\n        /* \"#utility.yul\":12414:12462   */\n      tag_113\n      jump\t// in\n    tag_260:\n        /* \"#utility.yul\":12406:12412   */\n      dup4\n        /* \"#utility.yul\":12399:12463   */\n      sstore\n        /* \"#utility.yul\":12321:12477   */\n      pop\n        /* \"#utility.yul\":12298:12477   */\n    tag_259:\n        /* \"#utility.yul\":12523:12524   */\n      0x01\n        /* \"#utility.yul\":12519:12520   */\n      0x02\n        /* \"#utility.yul\":12511:12517   */\n      dup9\n        /* \"#utility.yul\":12507:12521   */\n      mul\n        /* \"#utility.yul\":12503:12525   */\n      add\n        /* \"#utility.yul\":12497:12501   */\n      dup9\n        /* \"#utility.yul\":12490:12526   */\n      sstore\n        /* \"#utility.yul\":11925:12536   */\n      pop\n      pop\n      pop\n        /* \"#utility.yul\":11888:12775   */\n    tag_251:\n      pop\n        /* \"#utility.yul\":11478:12781   */\n      pop\n      pop\n      pop\n        /* \"#utility.yul\":11386:12781   */\n      pop\n      pop\n      jump\t// out\n        /* \"#utility.yul\":12787:13210   */\n    tag_53:\n        /* \"#utility.yul\":12928:12932   */\n      0x00\n        /* \"#utility.yul\":12966:12968   */\n      0x40\n        /* \"#utility.yul\":12955:12964   */\n      dup3\n        /* \"#utility.yul\":12951:12969   */\n      add\n        /* \"#utility.yul\":12943:12969   */\n      swap1\n      pop\n        /* \"#utility.yul\":12979:13050   */\n      tag_262\n        /* \"#utility.yul\":13047:13048   */\n      0x00\n        /* \"#utility.yul\":13036:13045   */\n      dup4\n        /* \"#utility.yul\":13032:13049   */\n      add\n        /* \"#utility.yul\":13023:13029   */\n      dup6\n        /* \"#utility.yul\":12979:13050   */\n      tag_76\n      jump\t// in\n    tag_262:\n        /* \"#utility.yul\":13097:13106   */\n      dup2\n        /* \"#utility.yul\":13091:13095   */\n      dup2\n        /* \"#utility.yul\":13087:13107   */\n      sub\n        /* \"#utility.yul\":13082:13084   */\n      0x20\n        /* \"#utility.yul\":13071:13080   */\n      dup4\n        /* \"#utility.yul\":13067:13085   */\n      add\n        /* \"#utility.yul\":13060:13108   */\n      mstore\n        /* \"#utility.yul\":13125:13203   */\n      tag_263\n        /* \"#utility.yul\":13198:13202   */\n      dup2\n        /* \"#utility.yul\":13189:13195   */\n      dup5\n        /* \"#utility.yul\":13125:13203   */\n      tag_92\n      jump\t// in\n    tag_263:\n        /* \"#utility.yul\":13117:13203   */\n      swap1\n      pop\n        /* \"#utility.yul\":12787:13210   */\n      swap4\n      swap3\n      pop\n      pop\n      pop\n      jump\t// out\n        /* \"#utility.yul\":13216:13396   */\n    tag_115:\n        /* \"#utility.yul\":13264:13341   */\n      0x4e487b7100000000000000000000000000000000000000000000000000000000\n        /* \"#utility.yul\":13261:13262   */\n      0x00\n        /* \"#utility.yul\":13254:13342   */\n      mstore\n        /* \"#utility.yul\":13361:13365   */\n      0x11\n        /* \"#utility.yul\":13358:13359   */\n      0x04\n        /* \"#utility.yul\":13351:13366   */\n      mstore\n        /* \"#utility.yul\":13385:13389   */\n      0x24\n        /* \"#utility.yul\":13382:13383   */\n      0x00\n        /* \"#utility.yul\":13375:13390   */\n      revert\n        /* \"#utility.yul\":13402:13635   */\n    tag_55:\n        /* \"#utility.yul\":13441:13444   */\n      0x00\n        /* \"#utility.yul\":13464:13488   */\n      tag_266\n        /* \"#utility.yul\":13482:13487   */\n      dup3\n        /* \"#utility.yul\":13464:13488   */\n      tag_73\n      jump\t// in\n    tag_266:\n        /* \"#utility.yul\":13455:13488   */\n      swap2\n      pop\n        /* \"#utility.yul\":13510:13576   */\n      0xffffffffffffffffffffffffffffffffffffffffffffffffffffffffffffffff\n        /* \"#utility.yul\":13503:13508   */\n      dup3\n        /* \"#utility.yul\":13500:13577   */\n      sub\n        /* \"#utility.yul\":13497:13600   */\n      tag_267\n      jumpi\n        /* \"#utility.yul\":13580:13598   */\n      tag_268\n      tag_115\n      jump\t// in\n    tag_268:\n        /* \"#utility.yul\":13497:13600   */\n    tag_267:\n        /* \"#utility.yul\":13627:13628   */\n      0x01\n        /* \"#utility.yul\":13620:13625   */\n      dup3\n        /* \"#utility.yul\":13616:13629   */\n      add\n        /* \"#utility.yul\":13609:13629   */\n      swap1\n      pop\n        /* \"#utility.yul\":13402:13635   */\n      swap2\n      swap1\n      pop\n      jump\t// out\n\n    auxdata: 0xa264697066735822122071a69381789be0eb8fc9bcf64448f2be9ff0430d67a559b33f8701d3a8df163464736f6c634300081a0033\n}\n",
				"bytecode": {
					"linkReferences": {},
					"object": "608060405260016002553480156013575f80fd5b50610c5a806100215f395ff3fe608060405234801561000f575f80fd5b5060043610610060575f3560e01c806303c5c31f146100645780633a1b3d311461009457806361b8ce8c146100b057806395ffebf5146100ce578063bc8bc2b4146100ea578063dd68afb61461011c575b5f80fd5b61007e6004803603810190610079919061050b565b61014e565b60405161008b9190610545565b60405180910390f35b6100ae60048036038101906100a99190610581565b61016e565b005b6100b86101f0565b6040516100c59190610545565b60405180910390f35b6100e860048036038101906100e391906106fb565b6101f6565b005b61010460048036038101906100ff919061050b565b610304565b60405161011393929190610815565b60405180910390f35b6101366004803603810190610131919061050b565b6103bb565b60405161014593929190610815565b60405180910390f35b6001818154811061015d575f80fd5b905f5260205f20015f915090505481565b60025482106101b2576040517f08c379a00000000000000000000000000000000000000000000000000000000081526004016101a99061089b565b60405180910390fd5b805f808481526020019081526020015f206002015f6101000a81548160ff021916908360028111156101e7576101e66107a2565b5b02179055505050565b60025481565b604051806060016040528060025481526020018281526020015f6002811115610222576102216107a2565b5b8152505f8060025481526020019081526020015f205f820151815f015560208201518160010190816102549190610ab3565b506040820151816002015f6101000a81548160ff0219169083600281111561027f5761027e6107a2565b5b02179055509050506001600254908060018154018082558091505060019003905f5260205f20015f90919091909150557f606222d2d9b2ffe82e59c226d772a363312cfce0027119e88e27c4db155e882d600254826040516102e2929190610b82565b60405180910390a160025f8154809291906102fc90610bdd565b919050555050565b5f602052805f5260405f205f91509050805f015490806001018054610328906108e6565b80601f0160208091040260200160405190810160405280929190818152602001828054610354906108e6565b801561039f5780601f106103765761010080835404028352916020019161039f565b820191905f5260205f20905b81548152906001019060200180831161038257829003601f168201915b505050505090806002015f9054906101000a900460ff16905083565b5f60605f6002548410610403576040517f08c379a00000000000000000000000000000000000000000000000000000000081526004016103fa9061089b565b60405180910390fd5b5f805f8681526020019081526020015f209050805f015481600101826002015f9054906101000a900460ff1681805461043b906108e6565b80601f0160208091040260200160405190810160405280929190818152602001828054610467906108e6565b80156104b25780601f10610489576101008083540402835291602001916104b2565b820191905f5260205f20905b81548152906001019060200180831161049557829003601f168201915b50505050509150935093509350509193909250565b5f604051905090565b5f80fd5b5f80fd5b5f819050919050565b6104ea816104d8565b81146104f4575f80fd5b50565b5f81359050610505816104e1565b92915050565b5f602082840312156105205761051f6104d0565b5b5f61052d848285016104f7565b91505092915050565b61053f816104d8565b82525050565b5f6020820190506105585f830184610536565b92915050565b6003811061056a575f80fd5b50565b5f8135905061057b8161055e565b92915050565b5f8060408385031215610597576105966104d0565b5b5f6105a4858286016104f7565b92505060206105b58582860161056d565b9150509250929050565b5f80fd5b5f80fd5b5f601f19601f8301169050919050565b7f4e487b71000000000000000000000000000000000000000000000000000000005f52604160045260245ffd5b61060d826105c7565b810181811067ffffffffffffffff8211171561062c5761062b6105d7565b5b80604052505050565b5f61063e6104c7565b905061064a8282610604565b919050565b5f67ffffffffffffffff821115610669576106686105d7565b5b610672826105c7565b9050602081019050919050565b828183375f83830152505050565b5f61069f61069a8461064f565b610635565b9050828152602081018484840111156106bb576106ba6105c3565b5b6106c684828561067f565b509392505050565b5f82601f8301126106e2576106e16105bf565b5b81356106f284826020860161068d565b91505092915050565b5f602082840312156107105761070f6104d0565b5b5f82013567ffffffffffffffff81111561072d5761072c6104d4565b5b610739848285016106ce565b91505092915050565b5f81519050919050565b5f82825260208201905092915050565b8281835e5f83830152505050565b5f61077482610742565b61077e818561074c565b935061078e81856020860161075c565b610797816105c7565b840191505092915050565b7f4e487b71000000000000000000000000000000000000000000000000000000005f52602160045260245ffd5b600381106107e0576107df6107a2565b5b50565b5f8190506107f0826107cf565b919050565b5f6107ff826107e3565b9050919050565b61080f816107f5565b82525050565b5f6060820190506108285f830186610536565b818103602083015261083a818561076a565b90506108496040830184610806565b949350505050565b7f546f646f20646f6573206e6f74206578697374000000000000000000000000005f82015250565b5f61088560138361074c565b915061089082610851565b602082019050919050565b5f6020820190508181035f8301526108b281610879565b9050919050565b7f4e487b71000000000000000000000000000000000000000000000000000000005f52602260045260245ffd5b5f60028204905060018216806108fd57607f821691505b6020821081036109105761090f6108b9565b5b50919050565b5f819050815f5260205f209050919050565b5f6020601f8301049050919050565b5f82821b905092915050565b5f600883026109727fffffffffffffffffffffffffffffffffffffffffffffffffffffffffffffffff82610937565b61097c8683610937565b95508019841693508086168417925050509392505050565b5f819050919050565b5f6109b76109b26109ad846104d8565b610994565b6104d8565b9050919050565b5f819050919050565b6109d08361099d565b6109e46109dc826109be565b848454610943565b825550505050565b5f90565b6109f86109ec565b610a038184846109c7565b505050565b5b81811015610a2657610a1b5f826109f0565b600181019050610a09565b5050565b601f821115610a6b57610a3c81610916565b610a4584610928565b81016020851015610a54578190505b610a68610a6085610928565b830182610a08565b50505b505050565b5f82821c905092915050565b5f610a8b5f1984600802610a70565b1980831691505092915050565b5f610aa38383610a7c565b9150826002028217905092915050565b610abc82610742565b67ffffffffffffffff811115610ad557610ad46105d7565b5b610adf82546108e6565b610aea828285610a2a565b5f60209050601f831160018114610b1b575f8415610b09578287015190505b610b138582610a98565b865550610b7a565b601f198416610b2986610916565b5f5b82811015610b5057848901518255600182019150602085019450602081019050610b2b565b86831015610b6d5784890151610b69601f891682610a7c565b8355505b6001600288020188555050505b505050505050565b5f604082019050610b955f830185610536565b8181036020830152610ba7818461076a565b90509392505050565b7f4e487b71000000000000000000000000000000000000000000000000000000005f52601160045260245ffd5b5f610be7826104d8565b91507fffffffffffffffffffffffffffffffffffffffffffffffffffffffffffffffff8203610c1957610c18610bb0565b5b60018201905091905056fea264697066735822122071a69381789be0eb8fc9bcf64448f2be9ff0430d67a559b33f8701d3a8df163464736f6c634300081a0033",
					"opcodes": "PUSH1 0x80 PUSH1 0x40 MSTORE PUSH1 0x1 PUSH1 0x2 SSTORE CALLVALUE DUP1 ISZERO PUSH1 0x13 JUMPI PUSH0 DUP1 REVERT JUMPDEST POP PUSH2 0xC5A DUP1 PUSH2 0x21 PUSH0 CODECOPY PUSH0 RETURN INVALID PUSH1 0x80 PUSH1 0x40 MSTORE CALLVALUE DUP1 ISZERO PUSH2 0xF JUMPI PUSH0 DUP1 REVERT JUMPDEST POP PUSH1 0x4 CALLDATASIZE LT PUSH2 0x60 JUMPI PUSH0 CALLDATALOAD PUSH1 0xE0 SHR DUP1 PUSH4 0x3C5C31F EQ PUSH2 0x64 JUMPI DUP1 PUSH4 0x3A1B3D31 EQ PUSH2 0x94 JUMPI DUP1 PUSH4 0x61B8CE8C EQ PUSH2 0xB0 JUMPI DUP1 PUSH4 0x95FFEBF5 EQ PUSH2 0xCE JUMPI DUP1 PUSH4 0xBC8BC2B4 EQ PUSH2 0xEA JUMPI DUP1 PUSH4 0xDD68AFB6 EQ PUSH2 0x11C JUMPI JUMPDEST PUSH0 DUP1 REVERT JUMPDEST PUSH2 0x7E PUSH1 0x4 DUP1 CALLDATASIZE SUB DUP2 ADD SWAP1 PUSH2 0x79 SWAP2 SWAP1 PUSH2 0x50B JUMP JUMPDEST PUSH2 0x14E JUMP JUMPDEST PUSH1 0x40 MLOAD PUSH2 0x8B SWAP2 SWAP1 PUSH2 0x545 JUMP JUMPDEST PUSH1 0x40 MLOAD DUP1 SWAP2 SUB SWAP1 RETURN JUMPDEST PUSH2 0xAE PUSH1 0x4 DUP1 CALLDATASIZE SUB DUP2 ADD SWAP1 PUSH2 0xA9 SWAP2 SWAP1 PUSH2 0x581 JUMP JUMPDEST PUSH2 0x16E JUMP JUMPDEST STOP JUMPDEST PUSH2 0xB8 PUSH2 0x1F0 JUMP JUMPDEST PUSH1 0x40 MLOAD PUSH2 0xC5 SWAP2 SWAP1 PUSH2 0x545 JUMP JUMPDEST PUSH1 0x40 MLOAD DUP1 SWAP2 SUB SWAP1 RETURN JUMPDEST PUSH2 0xE8 PUSH1 0x4 DUP1 CALLDATASIZE SUB DUP2 ADD SWAP1 PUSH2 0xE3 SWAP2 SWAP1 PUSH2 0x6FB JUMP JUMPDEST PUSH2 0x1F6 JUMP JUMPDEST STOP JUMPDEST PUSH2 0x104 PUSH1 0x4 DUP1 CALLDATASIZE SUB DUP2 ADD SWAP1 PUSH2 0xFF SWAP2 SWAP1 PUSH2 0x50B JUMP JUMPDEST PUSH2 0x304 JUMP JUMPDEST PUSH1 0x40 MLOAD PUSH2 0x113 SWAP4 SWAP3 SWAP2 SWAP1 PUSH2 0x815 JUMP JUMPDEST PUSH1 0x40 MLOAD DUP1 SWAP2 SUB SWAP1 RETURN JUMPDEST PUSH2 0x136 PUSH1 0x4 DUP1 CALLDATASIZE SUB DUP2 ADD SWAP1 PUSH2 0x131 SWAP2 SWAP1 PUSH2 0x50B JUMP JUMPDEST PUSH2 0x3BB JUMP JUMPDEST PUSH1 0x40 MLOAD PUSH2 0x145 SWAP4 SWAP3 SWAP2 SWAP1 PUSH2 0x815 JUMP JUMPDEST PUSH1 0x40 MLOAD DUP1 SWAP2 SUB SWAP1 RETURN JUMPDEST PUSH1 0x1 DUP2 DUP2 SLOAD DUP2 LT PUSH2 0x15D JUMPI PUSH0 DUP1 REVERT JUMPDEST SWAP1 PUSH0 MSTORE PUSH1 0x20 PUSH0 KECCAK256 ADD PUSH0 SWAP2 POP SWAP1 POP SLOAD DUP2 JUMP JUMPDEST PUSH1 0x2 SLOAD DUP3 LT PUSH2 0x1B2 JUMPI PUSH1 0x40 MLOAD PUSH32 0x8C379A000000000000000000000000000000000000000000000000000000000 DUP2 MSTORE PUSH1 0x4 ADD PUSH2 0x1A9 SWAP1 PUSH2 0x89B JUMP JUMPDEST PUSH1 0x40 MLOAD DUP1 SWAP2 SUB SWAP1 REVERT JUMPDEST DUP1 PUSH0 DUP1 DUP5 DUP2 MSTORE PUSH1 0x20 ADD SWAP1 DUP2 MSTORE PUSH1 0x20 ADD PUSH0 KECCAK256 PUSH1 0x2 ADD PUSH0 PUSH2 0x100 EXP DUP2 SLOAD DUP2 PUSH1 0xFF MUL NOT AND SWAP1 DUP4 PUSH1 0x2 DUP2 GT ISZERO PUSH2 0x1E7 JUMPI PUSH2 0x1E6 PUSH2 0x7A2 JUMP JUMPDEST JUMPDEST MUL OR SWAP1 SSTORE POP POP POP JUMP JUMPDEST PUSH1 0x2 SLOAD DUP2 JUMP JUMPDEST PUSH1 0x40 MLOAD DUP1 PUSH1 0x60 ADD PUSH1 0x40 MSTORE DUP1 PUSH1 0x2 SLOAD DUP2 MSTORE PUSH1 0x20 ADD DUP3 DUP2 MSTORE PUSH1 0x20 ADD PUSH0 PUSH1 0x2 DUP2 GT ISZERO PUSH2 0x222 JUMPI PUSH2 0x221 PUSH2 0x7A2 JUMP JUMPDEST JUMPDEST DUP2 MSTORE POP PUSH0 DUP1 PUSH1 0x2 SLOAD DUP2 MSTORE PUSH1 0x20 ADD SWAP1 DUP2 MSTORE PUSH1 0x20 ADD PUSH0 KECCAK256 PUSH0 DUP3 ADD MLOAD DUP2 PUSH0 ADD SSTORE PUSH1 0x20 DUP3 ADD MLOAD DUP2 PUSH1 0x1 ADD SWAP1 DUP2 PUSH2 0x254 SWAP2 SWAP1 PUSH2 0xAB3 JUMP JUMPDEST POP PUSH1 0x40 DUP3 ADD MLOAD DUP2 PUSH1 0x2 ADD PUSH0 PUSH2 0x100 EXP DUP2 SLOAD DUP2 PUSH1 0xFF MUL NOT AND SWAP1 DUP4 PUSH1 0x2 DUP2 GT ISZERO PUSH2 0x27F JUMPI PUSH2 0x27E PUSH2 0x7A2 JUMP JUMPDEST JUMPDEST MUL OR SWAP1 SSTORE POP SWAP1 POP POP PUSH1 0x1 PUSH1 0x2 SLOAD SWAP1 DUP1 PUSH1 0x1 DUP2 SLOAD ADD DUP1 DUP3 SSTORE DUP1 SWAP2 POP POP PUSH1 0x1 SWAP1 SUB SWAP1 PUSH0 MSTORE PUSH1 0x20 PUSH0 KECCAK256 ADD PUSH0 SWAP1 SWAP2 SWAP1 SWAP2 SWAP1 SWAP2 POP SSTORE PUSH32 0x606222D2D9B2FFE82E59C226D772A363312CFCE0027119E88E27C4DB155E882D PUSH1 0x2 SLOAD DUP3 PUSH1 0x40 MLOAD PUSH2 0x2E2 SWAP3 SWAP2 SWAP1 PUSH2 0xB82 JUMP JUMPDEST PUSH1 0x40 MLOAD DUP1 SWAP2 SUB SWAP1 LOG1 PUSH1 0x2 PUSH0 DUP2 SLOAD DUP1 SWAP3 SWAP2 SWAP1 PUSH2 0x2FC SWAP1 PUSH2 0xBDD JUMP JUMPDEST SWAP2 SWAP1 POP SSTORE POP POP JUMP JUMPDEST PUSH0 PUSH1 0x20 MSTORE DUP1 PUSH0 MSTORE PUSH1 0x40 PUSH0 KECCAK256 PUSH0 SWAP2 POP SWAP1 POP DUP1 PUSH0 ADD SLOAD SWAP1 DUP1 PUSH1 0x1 ADD DUP1 SLOAD PUSH2 0x328 SWAP1 PUSH2 0x8E6 JUMP JUMPDEST DUP1 PUSH1 0x1F ADD PUSH1 0x20 DUP1 SWAP2 DIV MUL PUSH1 0x20 ADD PUSH1 0x40 MLOAD SWAP1 DUP2 ADD PUSH1 0x40 MSTORE DUP1 SWAP3 SWAP2 SWAP1 DUP2 DUP2 MSTORE PUSH1 0x20 ADD DUP3 DUP1 SLOAD PUSH2 0x354 SWAP1 PUSH2 0x8E6 JUMP JUMPDEST DUP1 ISZERO PUSH2 0x39F JUMPI DUP1 PUSH1 0x1F LT PUSH2 0x376 JUMPI PUSH2 0x100 DUP1 DUP4 SLOAD DIV MUL DUP4 MSTORE SWAP2 PUSH1 0x20 ADD SWAP2 PUSH2 0x39F JUMP JUMPDEST DUP3 ADD SWAP2 SWAP1 PUSH0 MSTORE PUSH1 0x20 PUSH0 KECCAK256 SWAP1 JUMPDEST DUP2 SLOAD DUP2 MSTORE SWAP1 PUSH1 0x1 ADD SWAP1 PUSH1 0x20 ADD DUP1 DUP4 GT PUSH2 0x382 JUMPI DUP3 SWAP1 SUB PUSH1 0x1F AND DUP3 ADD SWAP2 JUMPDEST POP POP POP POP POP SWAP1 DUP1 PUSH1 0x2 ADD PUSH0 SWAP1 SLOAD SWAP1 PUSH2 0x100 EXP SWAP1 DIV PUSH1 0xFF AND SWAP1 POP DUP4 JUMP JUMPDEST PUSH0 PUSH1 0x60 PUSH0 PUSH1 0x2 SLOAD DUP5 LT PUSH2 0x403 JUMPI PUSH1 0x40 MLOAD PUSH32 0x8C379A000000000000000000000000000000000000000000000000000000000 DUP2 MSTORE PUSH1 0x4 ADD PUSH2 0x3FA SWAP1 PUSH2 0x89B JUMP JUMPDEST PUSH1 0x40 MLOAD DUP1 SWAP2 SUB SWAP1 REVERT JUMPDEST PUSH0 DUP1 PUSH0 DUP7 DUP2 MSTORE PUSH1 0x20 ADD SWAP1 DUP2 MSTORE PUSH1 0x20 ADD PUSH0 KECCAK256 SWAP1 POP DUP1 PUSH0 ADD SLOAD DUP2 PUSH1 0x1 ADD DUP3 PUSH1 0x2 ADD PUSH0 SWAP1 SLOAD SWAP1 PUSH2 0x100 EXP SWAP1 DIV PUSH1 0xFF AND DUP2 DUP1 SLOAD PUSH2 0x43B SWAP1 PUSH2 0x8E6 JUMP JUMPDEST DUP1 PUSH1 0x1F ADD PUSH1 0x20 DUP1 SWAP2 DIV MUL PUSH1 0x20 ADD PUSH1 0x40 MLOAD SWAP1 DUP2 ADD PUSH1 0x40 MSTORE DUP1 SWAP3 SWAP2 SWAP1 DUP2 DUP2 MSTORE PUSH1 0x20 ADD DUP3 DUP1 SLOAD PUSH2 0x467 SWAP1 PUSH2 0x8E6 JUMP JUMPDEST DUP1 ISZERO PUSH2 0x4B2 JUMPI DUP1 PUSH1 0x1F LT PUSH2 0x489 JUMPI PUSH2 0x100 DUP1 DUP4 SLOAD DIV MUL DUP4 MSTORE SWAP2 PUSH1 0x20 ADD SWAP2 PUSH2 0x4B2 JUMP JUMPDEST DUP3 ADD SWAP2 SWAP1 PUSH0 MSTORE PUSH1 0x20 PUSH0 KECCAK256 SWAP1 JUMPDEST DUP2 SLOAD DUP2 MSTORE SWAP1 PUSH1 0x1 ADD SWAP1 PUSH1 0x20 ADD DUP1 DUP4 GT PUSH2 0x495 JUMPI DUP3 SWAP1 SUB PUSH1 0x1F AND DUP3 ADD SWAP2 JUMPDEST POP POP POP POP POP SWAP2 POP SWAP4 POP SWAP4 POP SWAP4 POP POP SWAP2 SWAP4 SWAP1 SWAP3 POP JUMP JUMPDEST PUSH0 PUSH1 0x40 MLOAD SWAP1 POP SWAP1 JUMP JUMPDEST PUSH0 DUP1 REVERT JUMPDEST PUSH0 DUP1 REVERT JUMPDEST PUSH0 DUP2 SWAP1 POP SWAP2 SWAP1 POP JUMP JUMPDEST PUSH2 0x4EA DUP2 PUSH2 0x4D8 JUMP JUMPDEST DUP2 EQ PUSH2 0x4F4 JUMPI PUSH0 DUP1 REVERT JUMPDEST POP JUMP JUMPDEST PUSH0 DUP2 CALLDATALOAD SWAP1 POP PUSH2 0x505 DUP2 PUSH2 0x4E1 JUMP JUMPDEST SWAP3 SWAP2 POP POP JUMP JUMPDEST PUSH0 PUSH1 0x20 DUP3 DUP5 SUB SLT ISZERO PUSH2 0x520 JUMPI PUSH2 0x51F PUSH2 0x4D0 JUMP JUMPDEST JUMPDEST PUSH0 PUSH2 0x52D DUP5 DUP3 DUP6 ADD PUSH2 0x4F7 JUMP JUMPDEST SWAP2 POP POP SWAP3 SWAP2 POP POP JUMP JUMPDEST PUSH2 0x53F DUP2 PUSH2 0x4D8 JUMP JUMPDEST DUP3 MSTORE POP POP JUMP JUMPDEST PUSH0 PUSH1 0x20 DUP3 ADD SWAP1 POP PUSH2 0x558 PUSH0 DUP4 ADD DUP5 PUSH2 0x536 JUMP JUMPDEST SWAP3 SWAP2 POP POP JUMP JUMPDEST PUSH1 0x3 DUP2 LT PUSH2 0x56A JUMPI PUSH0 DUP1 REVERT JUMPDEST POP JUMP JUMPDEST PUSH0 DUP2 CALLDATALOAD SWAP1 POP PUSH2 0x57B DUP2 PUSH2 0x55E JUMP JUMPDEST SWAP3 SWAP2 POP POP JUMP JUMPDEST PUSH0 DUP1 PUSH1 0x40 DUP4 DUP6 SUB SLT ISZERO PUSH2 0x597 JUMPI PUSH2 0x596 PUSH2 0x4D0 JUMP JUMPDEST JUMPDEST PUSH0 PUSH2 0x5A4 DUP6 DUP3 DUP7 ADD PUSH2 0x4F7 JUMP JUMPDEST SWAP3 POP POP PUSH1 0x20 PUSH2 0x5B5 DUP6 DUP3 DUP7 ADD PUSH2 0x56D JUMP JUMPDEST SWAP2 POP POP SWAP3 POP SWAP3 SWAP1 POP JUMP JUMPDEST PUSH0 DUP1 REVERT JUMPDEST PUSH0 DUP1 REVERT JUMPDEST PUSH0 PUSH1 0x1F NOT PUSH1 0x1F DUP4 ADD AND SWAP1 POP SWAP2 SWAP1 POP JUMP JUMPDEST PUSH32 0x4E487B7100000000000000000000000000000000000000000000000000000000 PUSH0 MSTORE PUSH1 0x41 PUSH1 0x4 MSTORE PUSH1 0x24 PUSH0 REVERT JUMPDEST PUSH2 0x60D DUP3 PUSH2 0x5C7 JUMP JUMPDEST DUP2 ADD DUP2 DUP2 LT PUSH8 0xFFFFFFFFFFFFFFFF DUP3 GT OR ISZERO PUSH2 0x62C JUMPI PUSH2 0x62B PUSH2 0x5D7 JUMP JUMPDEST JUMPDEST DUP1 PUSH1 0x40 MSTORE POP POP POP JUMP JUMPDEST PUSH0 PUSH2 0x63E PUSH2 0x4C7 JUMP JUMPDEST SWAP1 POP PUSH2 0x64A DUP3 DUP3 PUSH2 0x604 JUMP JUMPDEST SWAP2 SWAP1 POP JUMP JUMPDEST PUSH0 PUSH8 0xFFFFFFFFFFFFFFFF DUP3 GT ISZERO PUSH2 0x669 JUMPI PUSH2 0x668 PUSH2 0x5D7 JUMP JUMPDEST JUMPDEST PUSH2 0x672 DUP3 PUSH2 0x5C7 JUMP JUMPDEST SWAP1 POP PUSH1 0x20 DUP2 ADD SWAP1 POP SWAP2 SWAP1 POP JUMP JUMPDEST DUP3 DUP2 DUP4 CALLDATACOPY PUSH0 DUP4 DUP4 ADD MSTORE POP POP POP JUMP JUMPDEST PUSH0 PUSH2 0x69F PUSH2 0x69A DUP5 PUSH2 0x64F JUMP JUMPDEST PUSH2 0x635 JUMP JUMPDEST SWAP1 POP DUP3 DUP2 MSTORE PUSH1 0x20 DUP2 ADD DUP5 DUP5 DUP5 ADD GT ISZERO PUSH2 0x6BB JUMPI PUSH2 0x6BA PUSH2 0x5C3 JUMP JUMPDEST JUMPDEST PUSH2 0x6C6 DUP5 DUP3 DUP6 PUSH2 0x67F JUMP JUMPDEST POP SWAP4 SWAP3 POP POP POP JUMP JUMPDEST PUSH0 DUP3 PUSH1 0x1F DUP4 ADD SLT PUSH2 0x6E2 JUMPI PUSH2 0x6E1 PUSH2 0x5BF JUMP JUMPDEST JUMPDEST DUP2 CALLDATALOAD PUSH2 0x6F2 DUP5 DUP3 PUSH1 0x20 DUP7 ADD PUSH2 0x68D JUMP JUMPDEST SWAP2 POP POP SWAP3 SWAP2 POP POP JUMP JUMPDEST PUSH0 PUSH1 0x20 DUP3 DUP5 SUB SLT ISZERO PUSH2 0x710 JUMPI PUSH2 0x70F PUSH2 0x4D0 JUMP JUMPDEST JUMPDEST PUSH0 DUP3 ADD CALLDATALOAD PUSH8 0xFFFFFFFFFFFFFFFF DUP2 GT ISZERO PUSH2 0x72D JUMPI PUSH2 0x72C PUSH2 0x4D4 JUMP JUMPDEST JUMPDEST PUSH2 0x739 DUP5 DUP3 DUP6 ADD PUSH2 0x6CE JUMP JUMPDEST SWAP2 POP POP SWAP3 SWAP2 POP POP JUMP JUMPDEST PUSH0 DUP2 MLOAD SWAP1 POP SWAP2 SWAP1 POP JUMP JUMPDEST PUSH0 DUP3 DUP3 MSTORE PUSH1 0x20 DUP3 ADD SWAP1 POP SWAP3 SWAP2 POP POP JUMP JUMPDEST DUP3 DUP2 DUP4 MCOPY PUSH0 DUP4 DUP4 ADD MSTORE POP POP POP JUMP JUMPDEST PUSH0 PUSH2 0x774 DUP3 PUSH2 0x742 JUMP JUMPDEST PUSH2 0x77E DUP2 DUP6 PUSH2 0x74C JUMP JUMPDEST SWAP4 POP PUSH2 0x78E DUP2 DUP6 PUSH1 0x20 DUP7 ADD PUSH2 0x75C JUMP JUMPDEST PUSH2 0x797 DUP2 PUSH2 0x5C7 JUMP JUMPDEST DUP5 ADD SWAP2 POP POP SWAP3 SWAP2 POP POP JUMP JUMPDEST PUSH32 0x4E487B7100000000000000000000000000000000000000000000000000000000 PUSH0 MSTORE PUSH1 0x21 PUSH1 0x4 MSTORE PUSH1 0x24 PUSH0 REVERT JUMPDEST PUSH1 0x3 DUP2 LT PUSH2 0x7E0 JUMPI PUSH2 0x7DF PUSH2 0x7A2 JUMP JUMPDEST JUMPDEST POP JUMP JUMPDEST PUSH0 DUP2 SWAP1 POP PUSH2 0x7F0 DUP3 PUSH2 0x7CF JUMP JUMPDEST SWAP2 SWAP1 POP JUMP JUMPDEST PUSH0 PUSH2 0x7FF DUP3 PUSH2 0x7E3 JUMP JUMPDEST SWAP1 POP SWAP2 SWAP1 POP JUMP JUMPDEST PUSH2 0x80F DUP2 PUSH2 0x7F5 JUMP JUMPDEST DUP3 MSTORE POP POP JUMP JUMPDEST PUSH0 PUSH1 0x60 DUP3 ADD SWAP1 POP PUSH2 0x828 PUSH0 DUP4 ADD DUP7 PUSH2 0x536 JUMP JUMPDEST DUP2 DUP2 SUB PUSH1 0x20 DUP4 ADD MSTORE PUSH2 0x83A DUP2 DUP6 PUSH2 0x76A JUMP JUMPDEST SWAP1 POP PUSH2 0x849 PUSH1 0x40 DUP4 ADD DUP5 PUSH2 0x806 JUMP JUMPDEST SWAP5 SWAP4 POP POP POP POP JUMP JUMPDEST PUSH32 0x546F646F20646F6573206E6F7420657869737400000000000000000000000000 PUSH0 DUP3 ADD MSTORE POP JUMP JUMPDEST PUSH0 PUSH2 0x885 PUSH1 0x13 DUP4 PUSH2 0x74C JUMP JUMPDEST SWAP2 POP PUSH2 0x890 DUP3 PUSH2 0x851 JUMP JUMPDEST PUSH1 0x20 DUP3 ADD SWAP1 POP SWAP2 SWAP1 POP JUMP JUMPDEST PUSH0 PUSH1 0x20 DUP3 ADD SWAP1 POP DUP2 DUP2 SUB PUSH0 DUP4 ADD MSTORE PUSH2 0x8B2 DUP2 PUSH2 0x879 JUMP JUMPDEST SWAP1 POP SWAP2 SWAP1 POP JUMP JUMPDEST PUSH32 0x4E487B7100000000000000000000000000000000000000000000000000000000 PUSH0 MSTORE PUSH1 0x22 PUSH1 0x4 MSTORE PUSH1 0x24 PUSH0 REVERT JUMPDEST PUSH0 PUSH1 0x2 DUP3 DIV SWAP1 POP PUSH1 0x1 DUP3 AND DUP1 PUSH2 0x8FD JUMPI PUSH1 0x7F DUP3 AND SWAP2 POP JUMPDEST PUSH1 0x20 DUP3 LT DUP2 SUB PUSH2 0x910 JUMPI PUSH2 0x90F PUSH2 0x8B9 JUMP JUMPDEST JUMPDEST POP SWAP2 SWAP1 POP JUMP JUMPDEST PUSH0 DUP2 SWAP1 POP DUP2 PUSH0 MSTORE PUSH1 0x20 PUSH0 KECCAK256 SWAP1 POP SWAP2 SWAP1 POP JUMP JUMPDEST PUSH0 PUSH1 0x20 PUSH1 0x1F DUP4 ADD DIV SWAP1 POP SWAP2 SWAP1 POP JUMP JUMPDEST PUSH0 DUP3 DUP3 SHL SWAP1 POP SWAP3 SWAP2 POP POP JUMP JUMPDEST PUSH0 PUSH1 0x8 DUP4 MUL PUSH2 0x972 PUSH32 0xFFFFFFFFFFFFFFFFFFFFFFFFFFFFFFFFFFFFFFFFFFFFFFFFFFFFFFFFFFFFFFFF DUP3 PUSH2 0x937 JUMP JUMPDEST PUSH2 0x97C DUP7 DUP4 PUSH2 0x937 JUMP JUMPDEST SWAP6 POP DUP1 NOT DUP5 AND SWAP4 POP DUP1 DUP7 AND DUP5 OR SWAP3 POP POP POP SWAP4 SWAP3 POP POP POP JUMP JUMPDEST PUSH0 DUP2 SWAP1 POP SWAP2 SWAP1 POP JUMP JUMPDEST PUSH0 PUSH2 0x9B7 PUSH2 0x9B2 PUSH2 0x9AD DUP5 PUSH2 0x4D8 JUMP JUMPDEST PUSH2 0x994 JUMP JUMPDEST PUSH2 0x4D8 JUMP JUMPDEST SWAP1 POP SWAP2 SWAP1 POP JUMP JUMPDEST PUSH0 DUP2 SWAP1 POP SWAP2 SWAP1 POP JUMP JUMPDEST PUSH2 0x9D0 DUP4 PUSH2 0x99D JUMP JUMPDEST PUSH2 0x9E4 PUSH2 0x9DC DUP3 PUSH2 0x9BE JUMP JUMPDEST DUP5 DUP5 SLOAD PUSH2 0x943 JUMP JUMPDEST DUP3 SSTORE POP POP POP POP JUMP JUMPDEST PUSH0 SWAP1 JUMP JUMPDEST PUSH2 0x9F8 PUSH2 0x9EC JUMP JUMPDEST PUSH2 0xA03 DUP2 DUP5 DUP5 PUSH2 0x9C7 JUMP JUMPDEST POP POP POP JUMP JUMPDEST JUMPDEST DUP2 DUP2 LT ISZERO PUSH2 0xA26 JUMPI PUSH2 0xA1B PUSH0 DUP3 PUSH2 0x9F0 JUMP JUMPDEST PUSH1 0x1 DUP2 ADD SWAP1 POP PUSH2 0xA09 JUMP JUMPDEST POP POP JUMP JUMPDEST PUSH1 0x1F DUP3 GT ISZERO PUSH2 0xA6B JUMPI PUSH2 0xA3C DUP2 PUSH2 0x916 JUMP JUMPDEST PUSH2 0xA45 DUP5 PUSH2 0x928 JUMP JUMPDEST DUP2 ADD PUSH1 0x20 DUP6 LT ISZERO PUSH2 0xA54 JUMPI DUP2 SWAP1 POP JUMPDEST PUSH2 0xA68 PUSH2 0xA60 DUP6 PUSH2 0x928 JUMP JUMPDEST DUP4 ADD DUP3 PUSH2 0xA08 JUMP JUMPDEST POP POP JUMPDEST POP POP POP JUMP JUMPDEST PUSH0 DUP3 DUP3 SHR SWAP1 POP SWAP3 SWAP2 POP POP JUMP JUMPDEST PUSH0 PUSH2 0xA8B PUSH0 NOT DUP5 PUSH1 0x8 MUL PUSH2 0xA70 JUMP JUMPDEST NOT DUP1 DUP4 AND SWAP2 POP POP SWAP3 SWAP2 POP POP JUMP JUMPDEST PUSH0 PUSH2 0xAA3 DUP4 DUP4 PUSH2 0xA7C JUMP JUMPDEST SWAP2 POP DUP3 PUSH1 0x2 MUL DUP3 OR SWAP1 POP SWAP3 SWAP2 POP POP JUMP JUMPDEST PUSH2 0xABC DUP3 PUSH2 0x742 JUMP JUMPDEST PUSH8 0xFFFFFFFFFFFFFFFF DUP2 GT ISZERO PUSH2 0xAD5 JUMPI PUSH2 0xAD4 PUSH2 0x5D7 JUMP JUMPDEST JUMPDEST PUSH2 0xADF DUP3 SLOAD PUSH2 0x8E6 JUMP JUMPDEST PUSH2 0xAEA DUP3 DUP3 DUP6 PUSH2 0xA2A JUMP JUMPDEST PUSH0 PUSH1 0x20 SWAP1 POP PUSH1 0x1F DUP4 GT PUSH1 0x1 DUP2 EQ PUSH2 0xB1B JUMPI PUSH0 DUP5 ISZERO PUSH2 0xB09 JUMPI DUP3 DUP8 ADD MLOAD SWAP1 POP JUMPDEST PUSH2 0xB13 DUP6 DUP3 PUSH2 0xA98 JUMP JUMPDEST DUP7 SSTORE POP PUSH2 0xB7A JUMP JUMPDEST PUSH1 0x1F NOT DUP5 AND PUSH2 0xB29 DUP7 PUSH2 0x916 JUMP JUMPDEST PUSH0 JUMPDEST DUP3 DUP2 LT ISZERO PUSH2 0xB50 JUMPI DUP5 DUP10 ADD MLOAD DUP3 SSTORE PUSH1 0x1 DUP3 ADD SWAP2 POP PUSH1 0x20 DUP6 ADD SWAP5 POP PUSH1 0x20 DUP2 ADD SWAP1 POP PUSH2 0xB2B JUMP JUMPDEST DUP7 DUP4 LT ISZERO PUSH2 0xB6D JUMPI DUP5 DUP10 ADD MLOAD PUSH2 0xB69 PUSH1 0x1F DUP10 AND DUP3 PUSH2 0xA7C JUMP JUMPDEST DUP4 SSTORE POP JUMPDEST PUSH1 0x1 PUSH1 0x2 DUP9 MUL ADD DUP9 SSTORE POP POP POP JUMPDEST POP POP POP POP POP POP JUMP JUMPDEST PUSH0 PUSH1 0x40 DUP3 ADD SWAP1 POP PUSH2 0xB95 PUSH0 DUP4 ADD DUP6 PUSH2 0x536 JUMP JUMPDEST DUP2 DUP2 SUB PUSH1 0x20 DUP4 ADD MSTORE PUSH2 0xBA7 DUP2 DUP5 PUSH2 0x76A JUMP JUMPDEST SWAP1 POP SWAP4 SWAP3 POP POP POP JUMP JUMPDEST PUSH32 0x4E487B7100000000000000000000000000000000000000000000000000000000 PUSH0 MSTORE PUSH1 0x11 PUSH1 0x4 MSTORE PUSH1 0x24 PUSH0 REVERT JUMPDEST PUSH0 PUSH2 0xBE7 DUP3 PUSH2 0x4D8 JUMP JUMPDEST SWAP2 POP PUSH32 0xFFFFFFFFFFFFFFFFFFFFFFFFFFFFFFFFFFFFFFFFFFFFFFFFFFFFFFFFFFFFFFFF DUP3 SUB PUSH2 0xC19 JUMPI PUSH2 0xC18 PUSH2 0xBB0 JUMP JUMPDEST JUMPDEST PUSH1 0x1 DUP3 ADD SWAP1 POP SWAP2 SWAP1 POP JUMP INVALID LOG2 PUSH5 0x6970667358 0x22 SLT KECCAK256 PUSH18 0xA69381789BE0EB8FC9BCF64448F2BE9FF043 0xD PUSH8 0xA559B33F8701D3A8 0xDF AND CALLVALUE PUSH5 0x736F6C6343 STOP ADDMOD BYTE STOP CALLER "
				},
				"gasEstimates": {
					"creation": {
						"codeDepositCost": "632400",
						"executionCost": "22768",
						"totalCost": "655168"
					},
					"external": {
						"addTodo(string)": "infinite",
						"getTodo(uint256)": "infinite",
						"nextId()": "2447",
						"todoIds(uint256)": "infinite",
						"todos(uint256)": "infinite",
						"updateStatus(uint256,uint8)": "27021"
					}
				},
				"methodIdentifiers": {
					"addTodo(string)": "95ffebf5",
					"getTodo(uint256)": "dd68afb6",
					"nextId()": "61b8ce8c",
					"todoIds(uint256)": "03c5c31f",
					"todos(uint256)": "bc8bc2b4",
					"updateStatus(uint256,uint8)": "3a1b3d31"
				}
			},
			"storageLayout": {
				"storage": [
					{
						"astId": 18,
						"contract": "contracts/TodoList.sol:TodoList",
						"label": "todos",
						"offset": 0,
						"slot": "0",
						"type": "t_mapping(t_uint256,t_struct(Todo)13_storage)"
					},
					{
						"astId": 21,
						"contract": "contracts/TodoList.sol:TodoList",
						"label": "todoIds",
						"offset": 0,
						"slot": "1",
						"type": "t_array(t_uint256)dyn_storage"
					},
					{
						"astId": 24,
						"contract": "contracts/TodoList.sol:TodoList",
						"label": "nextId",
						"offset": 0,
						"slot": "2",
						"type": "t_uint256"
					}
				],
				"types": {
					"t_array(t_uint256)dyn_storage": {
						"base": "t_uint256",
						"encoding": "dynamic_array",
						"label": "uint256[]",
						"numberOfBytes": "32"
					},
					"t_enum(Status)5": {
						"encoding": "inplace",
						"label": "enum TodoList.Status",
						"numberOfBytes": "1"
					},
					"t_mapping(t_uint256,t_struct(Todo)13_storage)": {
						"encoding": "mapping",
						"key": "t_uint256",
						"label": "mapping(uint256 => struct TodoList.Todo)",
						"numberOfBytes": "32",
						"value": "t_struct(Todo)13_storage"
					},
					"t_string_storage": {
						"encoding": "bytes",
						"label": "string",
						"numberOfBytes": "32"
					},
					"t_struct(Todo)13_storage": {
						"encoding": "inplace",
						"label": "struct TodoList.Todo",
						"members": [
							{
								"astId": 7,
								"contract": "contracts/TodoList.sol:TodoList",
								"label": "id",
								"offset": 0,
								"slot": "0",
								"type": "t_uint256"
							},
							{
								"astId": 9,
								"contract": "contracts/TodoList.sol:TodoList",
								"label": "content",
								"offset": 0,
								"slot": "1",
								"type": "t_string_storage"
							},
							{
								"astId": 12,
								"contract": "contracts/TodoList.sol:TodoList",
								"label": "status",
								"offset": 0,
								"slot": "2",
								"type": "t_enum(Status)5"
							}
						],
						"numberOfBytes": "96"
					},
					"t_uint256": {
						"encoding": "inplace",
						"label": "uint256",
						"numberOfBytes": "32"
					}
				}
			},
			"userdoc": {
				"kind": "user",
				"methods": {},
				"version": 1
			}
		}
	}
}