{
	"contracts/Proxy.sol": {
		"ProxyEIP1967": {
			"abi": [
				{
					"inputs": [
						{
							"internalType": "address",
							"name": "_implementation",
							"type": "address"
						}
					],
					"stateMutability": "nonpayable",
					"type": "constructor"
				},
				{
					"anonymous": false,
					"inputs": [
						{
							"indexed": true,
							"internalType": "address",
							"name": "previousAdmin",
							"type": "address"
						},
						{
							"indexed": true,
							"internalType": "address",
							"name": "newAdmin",
							"type": "address"
						}
					],
					"name": "AdminChanged",
					"type": "event"
				},
				{
					"anonymous": false,
					"inputs": [
						{
							"indexed": true,
							"internalType": "address",
							"name": "implementation",
							"type": "address"
						}
					],
					"name": "Upgraded",
					"type": "event"
				},
				{
					"stateMutability": "payable",
					"type": "fallback"
				},
				{
					"inputs": [],
					"name": "admin",
					"outputs": [
						{
							"internalType": "address",
							"name": "",
							"type": "address"
						}
					],
					"stateMutability": "view",
					"type": "function"
				},
				{
					"inputs": [
						{
							"internalType": "address",
							"name": "newAdmin",
							"type": "address"
						}
					],
					"name": "changeAdmin",
					"outputs": [],
					"stateMutability": "nonpayable",
					"type": "function"
				},
				{
					"inputs": [],
					"name": "implementation",
					"outputs": [
						{
							"internalType": "address",
							"name": "",
							"type": "address"
						}
					],
					"stateMutability": "view",
					"type": "function"
				},
				{
					"inputs": [
						{
							"internalType": "address",
							"name": "newImplementation",
							"type": "address"
						}
					],
					"name": "upgradeTo",
					"outputs": [],
					"stateMutability": "nonpayable",
					"type": "function"
				},
				{
					"stateMutability": "payable",
					"type": "receive"
				}
			],
			"devdoc": {
				"details": "Uses delegatecall to forward calls to implementation contract",
				"kind": "dev",
				"methods": {
					"changeAdmin(address)": {
						"params": {
							"newAdmin": "Address of the new admin"
						}
					},
					"upgradeTo(address)": {
						"params": {
							"newImplementation": "Address of the new implementation contract"
						}
					}
				},
				"title": "Simplified EIP-1967 Proxy Contract",
				"version": 1
			},
			"evm": {
				"assembly": "    /* \"contracts/Proxy.sol\":260:4100  contract ProxyEIP1967 {... */\n  mstore(0x40, 0x80)\n    /* \"contracts/Proxy.sol\":1036:1159  constructor(address _implementation) {... */\n  callvalue\n  dup1\n  iszero\n  tag_1\n  jumpi\n  0x00\n  dup1\n  revert\ntag_1:\n  pop\n  mload(0x40)\n  sub(codesize, bytecodeSize)\n  dup1\n  bytecodeSize\n  dup4\n  codecopy\n  dup2\n  dup2\n  add\n  0x40\n  mstore\n  dup2\n  add\n  swap1\n  tag_2\n  swap2\n  swap1\n  tag_3\n  jump\t// in\ntag_2:\n    /* \"contracts/Proxy.sol\":1084:1105  _setAdmin(msg.sender) */\n  tag_6\n    /* \"contracts/Proxy.sol\":1094:1104  msg.sender */\n  caller\n    /* \"contracts/Proxy.sol\":1084:1093  _setAdmin */\n  shl(0x20, tag_7)\n    /* \"contracts/Proxy.sol\":1084:1105  _setAdmin(msg.sender) */\n  0x20\n  shr\n  jump\t// in\ntag_6:\n    /* \"contracts/Proxy.sol\":1116:1151  _setImplementation(_implementation) */\n  tag_8\n    /* \"contracts/Proxy.sol\":1135:1150  _implementation */\n  dup2\n    /* \"contracts/Proxy.sol\":1116:1134  _setImplementation */\n  shl(0x20, tag_9)\n    /* \"contracts/Proxy.sol\":1116:1151  _setImplementation(_implementation) */\n  0x20\n  shr\n  jump\t// in\ntag_8:\n    /* \"contracts/Proxy.sol\":1036:1159  constructor(address _implementation) {... */\n  pop\n    /* \"contracts/Proxy.sol\":260:4100  contract ProxyEIP1967 {... */\n  jump(tag_10)\n    /* \"contracts/Proxy.sol\":3940:4097  function _setAdmin(address newAdmin) internal {... */\ntag_7:\n    /* \"contracts/Proxy.sol\":3997:4009  bytes32 slot */\n  0x00\n    /* \"contracts/Proxy.sol\":703:769  0xb53127684a568b3173ae13b9f8a6016e01a5b8b34c5b64c1d9f6a5b1e0bde6f3 */\n  0xb53127684a568b3173ae13b9f8a6016e01a5b8b34c5b64c1d9f6a5b1e0bde6f3\n    /* \"contracts/Proxy.sol\":4012:4022  ADMIN_SLOT */\n  0x00\n  shl\n    /* \"contracts/Proxy.sol\":3997:4022  bytes32 slot = ADMIN_SLOT */\n  swap1\n  pop\n    /* \"contracts/Proxy.sol\":4070:4078  newAdmin */\n  dup2\n    /* \"contracts/Proxy.sol\":4064:4068  slot */\n  dup2\n    /* \"contracts/Proxy.sol\":4057:4079  sstore(slot, newAdmin) */\n  sstore\n    /* \"contracts/Proxy.sol\":4042:4090  {... */\n  pop\n    /* \"contracts/Proxy.sol\":3940:4097  function _setAdmin(address newAdmin) internal {... */\n  pop\n  jump\t// out\n    /* \"contracts/Proxy.sol\":3440:3633  function _setImplementation(address newImplementation) internal {... */\ntag_9:\n    /* \"contracts/Proxy.sol\":3515:3527  bytes32 slot */\n  0x00\n    /* \"contracts/Proxy.sol\":477:543  0x360894a13ba1a3210667c828492db98dca3e2076cc3735a920a3ca505d382bbc */\n  0x360894a13ba1a3210667c828492db98dca3e2076cc3735a920a3ca505d382bbc\n    /* \"contracts/Proxy.sol\":3530:3549  IMPLEMENTATION_SLOT */\n  0x00\n  shl\n    /* \"contracts/Proxy.sol\":3515:3549  bytes32 slot = IMPLEMENTATION_SLOT */\n  swap1\n  pop\n    /* \"contracts/Proxy.sol\":3597:3614  newImplementation */\n  dup2\n    /* \"contracts/Proxy.sol\":3591:3595  slot */\n  dup2\n    /* \"contracts/Proxy.sol\":3584:3615  sstore(slot, newImplementation) */\n  sstore\n    /* \"contracts/Proxy.sol\":3569:3626  {... */\n  pop\n    /* \"contracts/Proxy.sol\":3440:3633  function _setImplementation(address newImplementation) internal {... */\n  pop\n  jump\t// out\n    /* \"#utility.yul\":88:205   */\ntag_14:\n    /* \"#utility.yul\":197:198   */\n  0x00\n    /* \"#utility.yul\":194:195   */\n  dup1\n    /* \"#utility.yul\":187:199   */\n  revert\n    /* \"#utility.yul\":334:460   */\ntag_16:\n    /* \"#utility.yul\":371:378   */\n  0x00\n    /* \"#utility.yul\":411:453   */\n  0xffffffffffffffffffffffffffffffffffffffff\n    /* \"#utility.yul\":404:409   */\n  dup3\n    /* \"#utility.yul\":400:454   */\n  and\n    /* \"#utility.yul\":389:454   */\n  swap1\n  pop\n    /* \"#utility.yul\":334:460   */\n  swap2\n  swap1\n  pop\n  jump\t// out\n    /* \"#utility.yul\":466:562   */\ntag_17:\n    /* \"#utility.yul\":503:510   */\n  0x00\n    /* \"#utility.yul\":532:556   */\n  tag_26\n    /* \"#utility.yul\":550:555   */\n  dup3\n    /* \"#utility.yul\":532:556   */\n  tag_16\n  jump\t// in\ntag_26:\n    /* \"#utility.yul\":521:556   */\n  swap1\n  pop\n    /* \"#utility.yul\":466:562   */\n  swap2\n  swap1\n  pop\n  jump\t// out\n    /* \"#utility.yul\":568:690   */\ntag_18:\n    /* \"#utility.yul\":641:665   */\n  tag_28\n    /* \"#utility.yul\":659:664   */\n  dup2\n    /* \"#utility.yul\":641:665   */\n  tag_17\n  jump\t// in\ntag_28:\n    /* \"#utility.yul\":634:639   */\n  dup2\n    /* \"#utility.yul\":631:666   */\n  eq\n    /* \"#utility.yul\":621:684   */\n  tag_29\n  jumpi\n    /* \"#utility.yul\":680:681   */\n  0x00\n    /* \"#utility.yul\":677:678   */\n  dup1\n    /* \"#utility.yul\":670:682   */\n  revert\n    /* \"#utility.yul\":621:684   */\ntag_29:\n    /* \"#utility.yul\":568:690   */\n  pop\n  jump\t// out\n    /* \"#utility.yul\":696:839   */\ntag_19:\n    /* \"#utility.yul\":753:758   */\n  0x00\n    /* \"#utility.yul\":784:790   */\n  dup2\n    /* \"#utility.yul\":778:791   */\n  mload\n    /* \"#utility.yul\":769:791   */\n  swap1\n  pop\n    /* \"#utility.yul\":800:833   */\n  tag_31\n    /* \"#utility.yul\":827:832   */\n  dup2\n    /* \"#utility.yul\":800:833   */\n  tag_18\n  jump\t// in\ntag_31:\n    /* \"#utility.yul\":696:839   */\n  swap3\n  swap2\n  pop\n  pop\n  jump\t// out\n    /* \"#utility.yul\":845:1196   */\ntag_3:\n    /* \"#utility.yul\":915:921   */\n  0x00\n    /* \"#utility.yul\":964:966   */\n  0x20\n    /* \"#utility.yul\":952:961   */\n  dup3\n    /* \"#utility.yul\":943:950   */\n  dup5\n    /* \"#utility.yul\":939:962   */\n  sub\n    /* \"#utility.yul\":935:967   */\n  slt\n    /* \"#utility.yul\":932:1051   */\n  iszero\n  tag_33\n  jumpi\n    /* \"#utility.yul\":970:1049   */\n  tag_34\n  tag_14\n  jump\t// in\ntag_34:\n    /* \"#utility.yul\":932:1051   */\ntag_33:\n    /* \"#utility.yul\":1090:1091   */\n  0x00\n    /* \"#utility.yul\":1115:1179   */\n  tag_35\n    /* \"#utility.yul\":1171:1178   */\n  dup5\n    /* \"#utility.yul\":1162:1168   */\n  dup3\n    /* \"#utility.yul\":1151:1160   */\n  dup6\n    /* \"#utility.yul\":1147:1169   */\n  add\n    /* \"#utility.yul\":1115:1179   */\n  tag_19\n  jump\t// in\ntag_35:\n    /* \"#utility.yul\":1105:1179   */\n  swap2\n  pop\n    /* \"#utility.yul\":1061:1189   */\n  pop\n    /* \"#utility.yul\":845:1196   */\n  swap3\n  swap2\n  pop\n  pop\n  jump\t// out\n    /* \"contracts/Proxy.sol\":260:4100  contract ProxyEIP1967 {... */\ntag_10:\n  dataSize(sub_0)\n  dup1\n  dataOffset(sub_0)\n  0x00\n  codecopy\n  0x00\n  return\nstop\n\nsub_0: assembly {\n        /* \"contracts/Proxy.sol\":260:4100  contract ProxyEIP1967 {... */\n      mstore(0x40, 0x80)\n      jumpi(tag_1, lt(calldatasize, 0x04))\n      shr(0xe0, calldataload(0x00))\n      dup1\n      0x3659cfe6\n      eq\n      tag_3\n      jumpi\n      dup1\n      0x5c60da1b\n      eq\n      tag_4\n      jumpi\n      dup1\n      0x8f283970\n      eq\n      tag_5\n      jumpi\n      dup1\n      0xf851a440\n      eq\n      tag_6\n      jumpi\n      jump(tag_2)\n    tag_1:\n      jumpi(tag_2, calldatasize)\n        /* \"contracts/Proxy.sol\":1366:1394  _delegate(_implementation()) */\n      tag_9\n        /* \"contracts/Proxy.sol\":1376:1393  _implementation() */\n      tag_10\n        /* \"contracts/Proxy.sol\":1376:1391  _implementation */\n      tag_11\n        /* \"contracts/Proxy.sol\":1376:1393  _implementation() */\n      jump\t// in\n    tag_10:\n        /* \"contracts/Proxy.sol\":1366:1375  _delegate */\n      tag_12\n        /* \"contracts/Proxy.sol\":1366:1394  _delegate(_implementation()) */\n      jump\t// in\n    tag_9:\n        /* \"contracts/Proxy.sol\":260:4100  contract ProxyEIP1967 {... */\n      stop\n    tag_2:\n        /* \"contracts/Proxy.sol\":1284:1312  _delegate(_implementation()) */\n      tag_15\n        /* \"contracts/Proxy.sol\":1294:1311  _implementation() */\n      tag_16\n        /* \"contracts/Proxy.sol\":1294:1309  _implementation */\n      tag_11\n        /* \"contracts/Proxy.sol\":1294:1311  _implementation() */\n      jump\t// in\n    tag_16:\n        /* \"contracts/Proxy.sol\":1284:1293  _delegate */\n      tag_12\n        /* \"contracts/Proxy.sol\":1284:1312  _delegate(_implementation()) */\n      jump\t// in\n    tag_15:\n        /* \"contracts/Proxy.sol\":260:4100  contract ProxyEIP1967 {... */\n      stop\n        /* \"contracts/Proxy.sol\":1544:1804  function upgradeTo(address newImplementation) external onlyAdmin {... */\n    tag_3:\n      callvalue\n      dup1\n      iszero\n      tag_17\n      jumpi\n      0x00\n      dup1\n      revert\n    tag_17:\n      pop\n      tag_18\n      0x04\n      dup1\n      calldatasize\n      sub\n      dup2\n      add\n      swap1\n      tag_19\n      swap2\n      swap1\n      tag_20\n      jump\t// in\n    tag_19:\n      tag_21\n      jump\t// in\n    tag_18:\n      stop\n        /* \"contracts/Proxy.sol\":2192:2293  function implementation() external view returns (address) {... */\n    tag_4:\n      callvalue\n      dup1\n      iszero\n      tag_22\n      jumpi\n      0x00\n      dup1\n      revert\n    tag_22:\n      pop\n      tag_23\n      tag_24\n      jump\t// in\n    tag_23:\n      mload(0x40)\n      tag_25\n      swap2\n      swap1\n      tag_26\n      jump\t// in\n    tag_25:\n      mload(0x40)\n      dup1\n      swap2\n      sub\n      swap1\n      return\n        /* \"contracts/Proxy.sol\":1906:2128  function changeAdmin(address newAdmin) external onlyAdmin {... */\n    tag_5:\n      callvalue\n      dup1\n      iszero\n      tag_27\n      jumpi\n      0x00\n      dup1\n      revert\n    tag_27:\n      pop\n      tag_28\n      0x04\n      dup1\n      calldatasize\n      sub\n      dup2\n      add\n      swap1\n      tag_29\n      swap2\n      swap1\n      tag_20\n      jump\t// in\n    tag_29:\n      tag_30\n      jump\t// in\n    tag_28:\n      stop\n        /* \"contracts/Proxy.sol\":2348:2431  function admin() external view returns (address) {... */\n    tag_6:\n      callvalue\n      dup1\n      iszero\n      tag_31\n      jumpi\n      0x00\n      dup1\n      revert\n    tag_31:\n      pop\n      tag_32\n      tag_33\n      jump\t// in\n    tag_32:\n      mload(0x40)\n      tag_34\n      swap2\n      swap1\n      tag_26\n      jump\t// in\n    tag_34:\n      mload(0x40)\n      dup1\n      swap2\n      sub\n      swap1\n      return\n        /* \"contracts/Proxy.sol\":3178:3359  function _implementation() internal view returns (address impl) {... */\n    tag_11:\n        /* \"contracts/Proxy.sol\":3228:3240  address impl */\n      0x00\n        /* \"contracts/Proxy.sol\":3253:3265  bytes32 slot */\n      dup1\n        /* \"contracts/Proxy.sol\":477:543  0x360894a13ba1a3210667c828492db98dca3e2076cc3735a920a3ca505d382bbc */\n      0x360894a13ba1a3210667c828492db98dca3e2076cc3735a920a3ca505d382bbc\n        /* \"contracts/Proxy.sol\":3268:3287  IMPLEMENTATION_SLOT */\n      0x00\n      shl\n        /* \"contracts/Proxy.sol\":3253:3287  bytes32 slot = IMPLEMENTATION_SLOT */\n      swap1\n      pop\n        /* \"contracts/Proxy.sol\":3336:3340  slot */\n      dup1\n        /* \"contracts/Proxy.sol\":3330:3341  sload(slot) */\n      sload\n        /* \"contracts/Proxy.sol\":3322:3341  impl := sload(slot) */\n      swap2\n      pop\n        /* \"contracts/Proxy.sol\":3307:3352  {... */\n      pop\n        /* \"contracts/Proxy.sol\":3178:3359  function _implementation() internal view returns (address impl) {... */\n      swap1\n      jump\t// out\n        /* \"contracts/Proxy.sol\":2501:3095  function _delegate(address impl) internal {... */\n    tag_12:\n        /* \"contracts/Proxy.sol\":2660:2674  calldatasize() */\n      calldatasize\n        /* \"contracts/Proxy.sol\":2657:2658  0 */\n      0x00\n        /* \"contracts/Proxy.sol\":2654:2655  0 */\n      dup1\n        /* \"contracts/Proxy.sol\":2641:2675  calldatacopy(0, 0, calldatasize()) */\n      calldatacopy\n        /* \"contracts/Proxy.sol\":2846:2847  0 */\n      0x00\n        /* \"contracts/Proxy.sol\":2843:2844  0 */\n      dup1\n        /* \"contracts/Proxy.sol\":2827:2841  calldatasize() */\n      calldatasize\n        /* \"contracts/Proxy.sol\":2824:2825  0 */\n      0x00\n        /* \"contracts/Proxy.sol\":2818:2822  impl */\n      dup5\n        /* \"contracts/Proxy.sol\":2811:2816  gas() */\n      gas\n        /* \"contracts/Proxy.sol\":2798:2848  delegatecall(gas(), impl, 0, calldatasize(), 0, 0) */\n      delegatecall\n        /* \"contracts/Proxy.sol\":2928:2944  returndatasize() */\n      returndatasize\n        /* \"contracts/Proxy.sol\":2925:2926  0 */\n      0x00\n        /* \"contracts/Proxy.sol\":2922:2923  0 */\n      dup1\n        /* \"contracts/Proxy.sol\":2907:2945  returndatacopy(0, 0, returndatasize()) */\n      returndatacopy\n        /* \"contracts/Proxy.sol\":2966:2972  result */\n      dup1\n        /* \"contracts/Proxy.sol\":2991:2992  0 */\n      0x00\n        /* \"contracts/Proxy.sol\":2986:3024  case 0 { revert(0, returndatasize()) } */\n      dup2\n      eq\n      tag_38\n      jumpi\n        /* \"contracts/Proxy.sol\":3058:3074  returndatasize() */\n      returndatasize\n        /* \"contracts/Proxy.sol\":3055:3056  0 */\n      0x00\n        /* \"contracts/Proxy.sol\":3048:3075  return(0, returndatasize()) */\n      return\n        /* \"contracts/Proxy.sol\":2986:3024  case 0 { revert(0, returndatasize()) } */\n    tag_38:\n        /* \"contracts/Proxy.sol\":3005:3021  returndatasize() */\n      returndatasize\n        /* \"contracts/Proxy.sol\":3002:3003  0 */\n      0x00\n        /* \"contracts/Proxy.sol\":2995:3022  revert(0, returndatasize()) */\n      revert\n        /* \"contracts/Proxy.sol\":1544:1804  function upgradeTo(address newImplementation) external onlyAdmin {... */\n    tag_21:\n        /* \"contracts/Proxy.sol\":969:977  _admin() */\n      tag_40\n        /* \"contracts/Proxy.sol\":969:975  _admin */\n      tag_41\n        /* \"contracts/Proxy.sol\":969:977  _admin() */\n      jump\t// in\n    tag_40:\n        /* \"contracts/Proxy.sol\":955:977  msg.sender == _admin() */\n      0xffffffffffffffffffffffffffffffffffffffff\n      and\n        /* \"contracts/Proxy.sol\":955:965  msg.sender */\n      caller\n        /* \"contracts/Proxy.sol\":955:977  msg.sender == _admin() */\n      0xffffffffffffffffffffffffffffffffffffffff\n      and\n      eq\n        /* \"contracts/Proxy.sol\":947:1008  require(msg.sender == _admin(), \"Proxy: caller is not admin\") */\n      tag_42\n      jumpi\n      mload(0x40)\n      0x08c379a000000000000000000000000000000000000000000000000000000000\n      dup2\n      mstore\n      0x04\n      add\n      tag_43\n      swap1\n      tag_44\n      jump\t// in\n    tag_43:\n      mload(0x40)\n      dup1\n      swap2\n      sub\n      swap1\n      revert\n    tag_42:\n        /* \"contracts/Proxy.sol\":1657:1658  0 */\n      0x00\n        /* \"contracts/Proxy.sol\":1628:1659  newImplementation != address(0) */\n      0xffffffffffffffffffffffffffffffffffffffff\n      and\n        /* \"contracts/Proxy.sol\":1628:1645  newImplementation */\n      dup2\n        /* \"contracts/Proxy.sol\":1628:1659  newImplementation != address(0) */\n      0xffffffffffffffffffffffffffffffffffffffff\n      and\n      sub\n        /* \"contracts/Proxy.sol\":1620:1705  require(newImplementation != address(0), \"Proxy: new implementation is zero address\") */\n      tag_46\n      jumpi\n      mload(0x40)\n      0x08c379a000000000000000000000000000000000000000000000000000000000\n      dup2\n      mstore\n      0x04\n      add\n      tag_47\n      swap1\n      tag_48\n      jump\t// in\n    tag_47:\n      mload(0x40)\n      dup1\n      swap2\n      sub\n      swap1\n      revert\n    tag_46:\n        /* \"contracts/Proxy.sol\":1716:1753  _setImplementation(newImplementation) */\n      tag_49\n        /* \"contracts/Proxy.sol\":1735:1752  newImplementation */\n      dup2\n        /* \"contracts/Proxy.sol\":1716:1734  _setImplementation */\n      tag_50\n        /* \"contracts/Proxy.sol\":1716:1753  _setImplementation(newImplementation) */\n      jump\t// in\n    tag_49:\n        /* \"contracts/Proxy.sol\":1778:1795  newImplementation */\n      dup1\n        /* \"contracts/Proxy.sol\":1769:1796  Upgraded(newImplementation) */\n      0xffffffffffffffffffffffffffffffffffffffff\n      and\n      0xbc7cd75a20ee27fd9adebab32041f755214dbc6bffa90cc0225b39da2e5c2d3b\n      mload(0x40)\n      mload(0x40)\n      dup1\n      swap2\n      sub\n      swap1\n      log2\n        /* \"contracts/Proxy.sol\":1544:1804  function upgradeTo(address newImplementation) external onlyAdmin {... */\n      pop\n      jump\t// out\n        /* \"contracts/Proxy.sol\":2192:2293  function implementation() external view returns (address) {... */\n    tag_24:\n        /* \"contracts/Proxy.sol\":2241:2248  address */\n      0x00\n        /* \"contracts/Proxy.sol\":2268:2285  _implementation() */\n      tag_52\n        /* \"contracts/Proxy.sol\":2268:2283  _implementation */\n      tag_11\n        /* \"contracts/Proxy.sol\":2268:2285  _implementation() */\n      jump\t// in\n    tag_52:\n        /* \"contracts/Proxy.sol\":2261:2285  return _implementation() */\n      swap1\n      pop\n        /* \"contracts/Proxy.sol\":2192:2293  function implementation() external view returns (address) {... */\n      swap1\n      jump\t// out\n        /* \"contracts/Proxy.sol\":1906:2128  function changeAdmin(address newAdmin) external onlyAdmin {... */\n    tag_30:\n        /* \"contracts/Proxy.sol\":969:977  _admin() */\n      tag_54\n        /* \"contracts/Proxy.sol\":969:975  _admin */\n      tag_41\n        /* \"contracts/Proxy.sol\":969:977  _admin() */\n      jump\t// in\n    tag_54:\n        /* \"contracts/Proxy.sol\":955:977  msg.sender == _admin() */\n      0xffffffffffffffffffffffffffffffffffffffff\n      and\n        /* \"contracts/Proxy.sol\":955:965  msg.sender */\n      caller\n        /* \"contracts/Proxy.sol\":955:977  msg.sender == _admin() */\n      0xffffffffffffffffffffffffffffffffffffffff\n      and\n      eq\n        /* \"contracts/Proxy.sol\":947:1008  require(msg.sender == _admin(), \"Proxy: caller is not admin\") */\n      tag_55\n      jumpi\n      mload(0x40)\n      0x08c379a000000000000000000000000000000000000000000000000000000000\n      dup2\n      mstore\n      0x04\n      add\n      tag_56\n      swap1\n      tag_44\n      jump\t// in\n    tag_56:\n      mload(0x40)\n      dup1\n      swap2\n      sub\n      swap1\n      revert\n    tag_55:\n        /* \"contracts/Proxy.sol\":2003:2004  0 */\n      0x00\n        /* \"contracts/Proxy.sol\":1983:2005  newAdmin != address(0) */\n      0xffffffffffffffffffffffffffffffffffffffff\n      and\n        /* \"contracts/Proxy.sol\":1983:1991  newAdmin */\n      dup2\n        /* \"contracts/Proxy.sol\":1983:2005  newAdmin != address(0) */\n      0xffffffffffffffffffffffffffffffffffffffff\n      and\n      sub\n        /* \"contracts/Proxy.sol\":1975:2042  require(newAdmin != address(0), \"Proxy: new admin is zero address\") */\n      tag_58\n      jumpi\n      mload(0x40)\n      0x08c379a000000000000000000000000000000000000000000000000000000000\n      dup2\n      mstore\n      0x04\n      add\n      tag_59\n      swap1\n      tag_60\n      jump\t// in\n    tag_59:\n      mload(0x40)\n      dup1\n      swap2\n      sub\n      swap1\n      revert\n    tag_58:\n        /* \"contracts/Proxy.sol\":2081:2089  newAdmin */\n      dup1\n        /* \"contracts/Proxy.sol\":2058:2090  AdminChanged(_admin(), newAdmin) */\n      0xffffffffffffffffffffffffffffffffffffffff\n      and\n        /* \"contracts/Proxy.sol\":2071:2079  _admin() */\n      tag_61\n        /* \"contracts/Proxy.sol\":2071:2077  _admin */\n      tag_41\n        /* \"contracts/Proxy.sol\":2071:2079  _admin() */\n      jump\t// in\n    tag_61:\n        /* \"contracts/Proxy.sol\":2058:2090  AdminChanged(_admin(), newAdmin) */\n      0xffffffffffffffffffffffffffffffffffffffff\n      and\n      0x7e644d79422f17c01e4894b5f4f588d331ebfa28653d42ae832dc59e38c9798f\n      mload(0x40)\n      mload(0x40)\n      dup1\n      swap2\n      sub\n      swap1\n      log3\n        /* \"contracts/Proxy.sol\":2101:2120  _setAdmin(newAdmin) */\n      tag_62\n        /* \"contracts/Proxy.sol\":2111:2119  newAdmin */\n      dup2\n        /* \"contracts/Proxy.sol\":2101:2110  _setAdmin */\n      tag_63\n        /* \"contracts/Proxy.sol\":2101:2120  _setAdmin(newAdmin) */\n      jump\t// in\n    tag_62:\n        /* \"contracts/Proxy.sol\":1906:2128  function changeAdmin(address newAdmin) external onlyAdmin {... */\n      pop\n      jump\t// out\n        /* \"contracts/Proxy.sol\":2348:2431  function admin() external view returns (address) {... */\n    tag_33:\n        /* \"contracts/Proxy.sol\":2388:2395  address */\n      0x00\n        /* \"contracts/Proxy.sol\":2415:2423  _admin() */\n      tag_65\n        /* \"contracts/Proxy.sol\":2415:2421  _admin */\n      tag_41\n        /* \"contracts/Proxy.sol\":2415:2423  _admin() */\n      jump\t// in\n    tag_65:\n        /* \"contracts/Proxy.sol\":2408:2423  return _admin() */\n      swap1\n      pop\n        /* \"contracts/Proxy.sol\":2348:2431  function admin() external view returns (address) {... */\n      swap1\n      jump\t// out\n        /* \"contracts/Proxy.sol\":3707:3868  function _admin() internal view returns (address adm) {... */\n    tag_41:\n        /* \"contracts/Proxy.sol\":3748:3759  address adm */\n      0x00\n        /* \"contracts/Proxy.sol\":3772:3784  bytes32 slot */\n      dup1\n        /* \"contracts/Proxy.sol\":703:769  0xb53127684a568b3173ae13b9f8a6016e01a5b8b34c5b64c1d9f6a5b1e0bde6f3 */\n      0xb53127684a568b3173ae13b9f8a6016e01a5b8b34c5b64c1d9f6a5b1e0bde6f3\n        /* \"contracts/Proxy.sol\":3787:3797  ADMIN_SLOT */\n      0x00\n      shl\n        /* \"contracts/Proxy.sol\":3772:3797  bytes32 slot = ADMIN_SLOT */\n      swap1\n      pop\n        /* \"contracts/Proxy.sol\":3845:3849  slot */\n      dup1\n        /* \"contracts/Proxy.sol\":3839:3850  sload(slot) */\n      sload\n        /* \"contracts/Proxy.sol\":3832:3850  adm := sload(slot) */\n      swap2\n      pop\n        /* \"contracts/Proxy.sol\":3817:3861  {... */\n      pop\n        /* \"contracts/Proxy.sol\":3707:3868  function _admin() internal view returns (address adm) {... */\n      swap1\n      jump\t// out\n        /* \"contracts/Proxy.sol\":3440:3633  function _setImplementation(address newImplementation) internal {... */\n    tag_50:\n        /* \"contracts/Proxy.sol\":3515:3527  bytes32 slot */\n      0x00\n        /* \"contracts/Proxy.sol\":477:543  0x360894a13ba1a3210667c828492db98dca3e2076cc3735a920a3ca505d382bbc */\n      0x360894a13ba1a3210667c828492db98dca3e2076cc3735a920a3ca505d382bbc\n        /* \"contracts/Proxy.sol\":3530:3549  IMPLEMENTATION_SLOT */\n      0x00\n      shl\n        /* \"contracts/Proxy.sol\":3515:3549  bytes32 slot = IMPLEMENTATION_SLOT */\n      swap1\n      pop\n        /* \"contracts/Proxy.sol\":3597:3614  newImplementation */\n      dup2\n        /* \"contracts/Proxy.sol\":3591:3595  slot */\n      dup2\n        /* \"contracts/Proxy.sol\":3584:3615  sstore(slot, newImplementation) */\n      sstore\n        /* \"contracts/Proxy.sol\":3569:3626  {... */\n      pop\n        /* \"contracts/Proxy.sol\":3440:3633  function _setImplementation(address newImplementation) internal {... */\n      pop\n      jump\t// out\n        /* \"contracts/Proxy.sol\":3940:4097  function _setAdmin(address newAdmin) internal {... */\n    tag_63:\n        /* \"contracts/Proxy.sol\":3997:4009  bytes32 slot */\n      0x00\n        /* \"contracts/Proxy.sol\":703:769  0xb53127684a568b3173ae13b9f8a6016e01a5b8b34c5b64c1d9f6a5b1e0bde6f3 */\n      0xb53127684a568b3173ae13b9f8a6016e01a5b8b34c5b64c1d9f6a5b1e0bde6f3\n        /* \"contracts/Proxy.sol\":4012:4022  ADMIN_SLOT */\n      0x00\n      shl\n        /* \"contracts/Proxy.sol\":3997:4022  bytes32 slot = ADMIN_SLOT */\n      swap1\n      pop\n        /* \"contracts/Proxy.sol\":4070:4078  newAdmin */\n      dup2\n        /* \"contracts/Proxy.sol\":4064:4068  slot */\n      dup2\n        /* \"contracts/Proxy.sol\":4057:4079  sstore(slot, newAdmin) */\n      sstore\n        /* \"contracts/Proxy.sol\":4042:4090  {... */\n      pop\n        /* \"contracts/Proxy.sol\":3940:4097  function _setAdmin(address newAdmin) internal {... */\n      pop\n      jump\t// out\n        /* \"#utility.yul\":88:205   */\n    tag_70:\n        /* \"#utility.yul\":197:198   */\n      0x00\n        /* \"#utility.yul\":194:195   */\n      dup1\n        /* \"#utility.yul\":187:199   */\n      revert\n        /* \"#utility.yul\":334:460   */\n    tag_72:\n        /* \"#utility.yul\":371:378   */\n      0x00\n        /* \"#utility.yul\":411:453   */\n      0xffffffffffffffffffffffffffffffffffffffff\n        /* \"#utility.yul\":404:409   */\n      dup3\n        /* \"#utility.yul\":400:454   */\n      and\n        /* \"#utility.yul\":389:454   */\n      swap1\n      pop\n        /* \"#utility.yul\":334:460   */\n      swap2\n      swap1\n      pop\n      jump\t// out\n        /* \"#utility.yul\":466:562   */\n    tag_73:\n        /* \"#utility.yul\":503:510   */\n      0x00\n        /* \"#utility.yul\":532:556   */\n      tag_90\n        /* \"#utility.yul\":550:555   */\n      dup3\n        /* \"#utility.yul\":532:556   */\n      tag_72\n      jump\t// in\n    tag_90:\n        /* \"#utility.yul\":521:556   */\n      swap1\n      pop\n        /* \"#utility.yul\":466:562   */\n      swap2\n      swap1\n      pop\n      jump\t// out\n        /* \"#utility.yul\":568:690   */\n    tag_74:\n        /* \"#utility.yul\":641:665   */\n      tag_92\n        /* \"#utility.yul\":659:664   */\n      dup2\n        /* \"#utility.yul\":641:665   */\n      tag_73\n      jump\t// in\n    tag_92:\n        /* \"#utility.yul\":634:639   */\n      dup2\n        /* \"#utility.yul\":631:666   */\n      eq\n        /* \"#utility.yul\":621:684   */\n      tag_93\n      jumpi\n        /* \"#utility.yul\":680:681   */\n      0x00\n        /* \"#utility.yul\":677:678   */\n      dup1\n        /* \"#utility.yul\":670:682   */\n      revert\n        /* \"#utility.yul\":621:684   */\n    tag_93:\n        /* \"#utility.yul\":568:690   */\n      pop\n      jump\t// out\n        /* \"#utility.yul\":696:835   */\n    tag_75:\n        /* \"#utility.yul\":742:747   */\n      0x00\n        /* \"#utility.yul\":780:786   */\n      dup2\n        /* \"#utility.yul\":767:787   */\n      calldataload\n        /* \"#utility.yul\":758:787   */\n      swap1\n      pop\n        /* \"#utility.yul\":796:829   */\n      tag_95\n        /* \"#utility.yul\":823:828   */\n      dup2\n        /* \"#utility.yul\":796:829   */\n      tag_74\n      jump\t// in\n    tag_95:\n        /* \"#utility.yul\":696:835   */\n      swap3\n      swap2\n      pop\n      pop\n      jump\t// out\n        /* \"#utility.yul\":841:1170   */\n    tag_20:\n        /* \"#utility.yul\":900:906   */\n      0x00\n        /* \"#utility.yul\":949:951   */\n      0x20\n        /* \"#utility.yul\":937:946   */\n      dup3\n        /* \"#utility.yul\":928:935   */\n      dup5\n        /* \"#utility.yul\":924:947   */\n      sub\n        /* \"#utility.yul\":920:952   */\n      slt\n        /* \"#utility.yul\":917:1036   */\n      iszero\n      tag_97\n      jumpi\n        /* \"#utility.yul\":955:1034   */\n      tag_98\n      tag_70\n      jump\t// in\n    tag_98:\n        /* \"#utility.yul\":917:1036   */\n    tag_97:\n        /* \"#utility.yul\":1075:1076   */\n      0x00\n        /* \"#utility.yul\":1100:1153   */\n      tag_99\n        /* \"#utility.yul\":1145:1152   */\n      dup5\n        /* \"#utility.yul\":1136:1142   */\n      dup3\n        /* \"#utility.yul\":1125:1134   */\n      dup6\n        /* \"#utility.yul\":1121:1143   */\n      add\n        /* \"#utility.yul\":1100:1153   */\n      tag_75\n      jump\t// in\n    tag_99:\n        /* \"#utility.yul\":1090:1153   */\n      swap2\n      pop\n        /* \"#utility.yul\":1046:1163   */\n      pop\n        /* \"#utility.yul\":841:1170   */\n      swap3\n      swap2\n      pop\n      pop\n      jump\t// out\n        /* \"#utility.yul\":1176:1294   */\n    tag_76:\n        /* \"#utility.yul\":1263:1287   */\n      tag_101\n        /* \"#utility.yul\":1281:1286   */\n      dup2\n        /* \"#utility.yul\":1263:1287   */\n      tag_73\n      jump\t// in\n    tag_101:\n        /* \"#utility.yul\":1258:1261   */\n      dup3\n        /* \"#utility.yul\":1251:1288   */\n      mstore\n        /* \"#utility.yul\":1176:1294   */\n      pop\n      pop\n      jump\t// out\n        /* \"#utility.yul\":1300:1522   */\n    tag_26:\n        /* \"#utility.yul\":1393:1397   */\n      0x00\n        /* \"#utility.yul\":1431:1433   */\n      0x20\n        /* \"#utility.yul\":1420:1429   */\n      dup3\n        /* \"#utility.yul\":1416:1434   */\n      add\n        /* \"#utility.yul\":1408:1434   */\n      swap1\n      pop\n        /* \"#utility.yul\":1444:1515   */\n      tag_103\n        /* \"#utility.yul\":1512:1513   */\n      0x00\n        /* \"#utility.yul\":1501:1510   */\n      dup4\n        /* \"#utility.yul\":1497:1514   */\n      add\n        /* \"#utility.yul\":1488:1494   */\n      dup5\n        /* \"#utility.yul\":1444:1515   */\n      tag_76\n      jump\t// in\n    tag_103:\n        /* \"#utility.yul\":1300:1522   */\n      swap3\n      swap2\n      pop\n      pop\n      jump\t// out\n        /* \"#utility.yul\":1528:1697   */\n    tag_77:\n        /* \"#utility.yul\":1612:1623   */\n      0x00\n        /* \"#utility.yul\":1646:1652   */\n      dup3\n        /* \"#utility.yul\":1641:1644   */\n      dup3\n        /* \"#utility.yul\":1634:1653   */\n      mstore\n        /* \"#utility.yul\":1686:1690   */\n      0x20\n        /* \"#utility.yul\":1681:1684   */\n      dup3\n        /* \"#utility.yul\":1677:1691   */\n      add\n        /* \"#utility.yul\":1662:1691   */\n      swap1\n      pop\n        /* \"#utility.yul\":1528:1697   */\n      swap3\n      swap2\n      pop\n      pop\n      jump\t// out\n        /* \"#utility.yul\":1703:1879   */\n    tag_78:\n        /* \"#utility.yul\":1843:1871   */\n      0x50726f78793a2063616c6c6572206973206e6f742061646d696e000000000000\n        /* \"#utility.yul\":1839:1840   */\n      0x00\n        /* \"#utility.yul\":1831:1837   */\n      dup3\n        /* \"#utility.yul\":1827:1841   */\n      add\n        /* \"#utility.yul\":1820:1872   */\n      mstore\n        /* \"#utility.yul\":1703:1879   */\n      pop\n      jump\t// out\n        /* \"#utility.yul\":1885:2251   */\n    tag_79:\n        /* \"#utility.yul\":2027:2030   */\n      0x00\n        /* \"#utility.yul\":2048:2115   */\n      tag_107\n        /* \"#utility.yul\":2112:2114   */\n      0x1a\n        /* \"#utility.yul\":2107:2110   */\n      dup4\n        /* \"#utility.yul\":2048:2115   */\n      tag_77\n      jump\t// in\n    tag_107:\n        /* \"#utility.yul\":2041:2115   */\n      swap2\n      pop\n        /* \"#utility.yul\":2124:2217   */\n      tag_108\n        /* \"#utility.yul\":2213:2216   */\n      dup3\n        /* \"#utility.yul\":2124:2217   */\n      tag_78\n      jump\t// in\n    tag_108:\n        /* \"#utility.yul\":2242:2244   */\n      0x20\n        /* \"#utility.yul\":2237:2240   */\n      dup3\n        /* \"#utility.yul\":2233:2245   */\n      add\n        /* \"#utility.yul\":2226:2245   */\n      swap1\n      pop\n        /* \"#utility.yul\":1885:2251   */\n      swap2\n      swap1\n      pop\n      jump\t// out\n        /* \"#utility.yul\":2257:2676   */\n    tag_44:\n        /* \"#utility.yul\":2423:2427   */\n      0x00\n        /* \"#utility.yul\":2461:2463   */\n      0x20\n        /* \"#utility.yul\":2450:2459   */\n      dup3\n        /* \"#utility.yul\":2446:2464   */\n      add\n        /* \"#utility.yul\":2438:2464   */\n      swap1\n      pop\n        /* \"#utility.yul\":2510:2519   */\n      dup2\n        /* \"#utility.yul\":2504:2508   */\n      dup2\n        /* \"#utility.yul\":2500:2520   */\n      sub\n        /* \"#utility.yul\":2496:2497   */\n      0x00\n        /* \"#utility.yul\":2485:2494   */\n      dup4\n        /* \"#utility.yul\":2481:2498   */\n      add\n        /* \"#utility.yul\":2474:2521   */\n      mstore\n        /* \"#utility.yul\":2538:2669   */\n      tag_110\n        /* \"#utility.yul\":2664:2668   */\n      dup2\n        /* \"#utility.yul\":2538:2669   */\n      tag_79\n      jump\t// in\n    tag_110:\n        /* \"#utility.yul\":2530:2669   */\n      swap1\n      pop\n        /* \"#utility.yul\":2257:2676   */\n      swap2\n      swap1\n      pop\n      jump\t// out\n        /* \"#utility.yul\":2682:2910   */\n    tag_80:\n        /* \"#utility.yul\":2822:2856   */\n      0x50726f78793a206e657720696d706c656d656e746174696f6e206973207a6572\n        /* \"#utility.yul\":2818:2819   */\n      0x00\n        /* \"#utility.yul\":2810:2816   */\n      dup3\n        /* \"#utility.yul\":2806:2820   */\n      add\n        /* \"#utility.yul\":2799:2857   */\n      mstore\n        /* \"#utility.yul\":2891:2902   */\n      0x6f20616464726573730000000000000000000000000000000000000000000000\n        /* \"#utility.yul\":2886:2888   */\n      0x20\n        /* \"#utility.yul\":2878:2884   */\n      dup3\n        /* \"#utility.yul\":2874:2889   */\n      add\n        /* \"#utility.yul\":2867:2903   */\n      mstore\n        /* \"#utility.yul\":2682:2910   */\n      pop\n      jump\t// out\n        /* \"#utility.yul\":2916:3282   */\n    tag_81:\n        /* \"#utility.yul\":3058:3061   */\n      0x00\n        /* \"#utility.yul\":3079:3146   */\n      tag_113\n        /* \"#utility.yul\":3143:3145   */\n      0x29\n        /* \"#utility.yul\":3138:3141   */\n      dup4\n        /* \"#utility.yul\":3079:3146   */\n      tag_77\n      jump\t// in\n    tag_113:\n        /* \"#utility.yul\":3072:3146   */\n      swap2\n      pop\n        /* \"#utility.yul\":3155:3248   */\n      tag_114\n        /* \"#utility.yul\":3244:3247   */\n      dup3\n        /* \"#utility.yul\":3155:3248   */\n      tag_80\n      jump\t// in\n    tag_114:\n        /* \"#utility.yul\":3273:3275   */\n      0x40\n        /* \"#utility.yul\":3268:3271   */\n      dup3\n        /* \"#utility.yul\":3264:3276   */\n      add\n        /* \"#utility.yul\":3257:3276   */\n      swap1\n      pop\n        /* \"#utility.yul\":2916:3282   */\n      swap2\n      swap1\n      pop\n      jump\t// out\n        /* \"#utility.yul\":3288:3707   */\n    tag_48:\n        /* \"#utility.yul\":3454:3458   */\n      0x00\n        /* \"#utility.yul\":3492:3494   */\n      0x20\n        /* \"#utility.yul\":3481:3490   */\n      dup3\n        /* \"#utility.yul\":3477:3495   */\n      add\n        /* \"#utility.yul\":3469:3495   */\n      swap1\n      pop\n        /* \"#utility.yul\":3541:3550   */\n      dup2\n        /* \"#utility.yul\":3535:3539   */\n      dup2\n        /* \"#utility.yul\":3531:3551   */\n      sub\n        /* \"#utility.yul\":3527:3528   */\n      0x00\n        /* \"#utility.yul\":3516:3525   */\n      dup4\n        /* \"#utility.yul\":3512:3529   */\n      add\n        /* \"#utility.yul\":3505:3552   */\n      mstore\n        /* \"#utility.yul\":3569:3700   */\n      tag_116\n        /* \"#utility.yul\":3695:3699   */\n      dup2\n        /* \"#utility.yul\":3569:3700   */\n      tag_81\n      jump\t// in\n    tag_116:\n        /* \"#utility.yul\":3561:3700   */\n      swap1\n      pop\n        /* \"#utility.yul\":3288:3707   */\n      swap2\n      swap1\n      pop\n      jump\t// out\n        /* \"#utility.yul\":3713:3895   */\n    tag_82:\n        /* \"#utility.yul\":3853:3887   */\n      0x50726f78793a206e65772061646d696e206973207a65726f2061646472657373\n        /* \"#utility.yul\":3849:3850   */\n      0x00\n        /* \"#utility.yul\":3841:3847   */\n      dup3\n        /* \"#utility.yul\":3837:3851   */\n      add\n        /* \"#utility.yul\":3830:3888   */\n      mstore\n        /* \"#utility.yul\":3713:3895   */\n      pop\n      jump\t// out\n        /* \"#utility.yul\":3901:4267   */\n    tag_83:\n        /* \"#utility.yul\":4043:4046   */\n      0x00\n        /* \"#utility.yul\":4064:4131   */\n      tag_119\n        /* \"#utility.yul\":4128:4130   */\n      0x20\n        /* \"#utility.yul\":4123:4126   */\n      dup4\n        /* \"#utility.yul\":4064:4131   */\n      tag_77\n      jump\t// in\n    tag_119:\n        /* \"#utility.yul\":4057:4131   */\n      swap2\n      pop\n        /* \"#utility.yul\":4140:4233   */\n      tag_120\n        /* \"#utility.yul\":4229:4232   */\n      dup3\n        /* \"#utility.yul\":4140:4233   */\n      tag_82\n      jump\t// in\n    tag_120:\n        /* \"#utility.yul\":4258:4260   */\n      0x20\n        /* \"#utility.yul\":4253:4256   */\n      dup3\n        /* \"#utility.yul\":4249:4261   */\n      add\n        /* \"#utility.yul\":4242:4261   */\n      swap1\n      pop\n        /* \"#utility.yul\":3901:4267   */\n      swap2\n      swap1\n      pop\n      jump\t// out\n        /* \"#utility.yul\":4273:4692   */\n    tag_60:\n        /* \"#utility.yul\":4439:4443   */\n      0x00\n        /* \"#utility.yul\":4477:4479   */\n      0x20\n        /* \"#utility.yul\":4466:4475   */\n      dup3\n        /* \"#utility.yul\":4462:4480   */\n      add\n        /* \"#utility.yul\":4454:4480   */\n      swap1\n      pop\n        /* \"#utility.yul\":4526:4535   */\n      dup2\n        /* \"#utility.yul\":4520:4524   */\n      dup2\n        /* \"#utility.yul\":4516:4536   */\n      sub\n        /* \"#utility.yul\":4512:4513   */\n      0x00\n        /* \"#utility.yul\":4501:4510   */\n      dup4\n        /* \"#utility.yul\":4497:4514   */\n      add\n        /* \"#utility.yul\":4490:4537   */\n      mstore\n        /* \"#utility.yul\":4554:4685   */\n      tag_122\n        /* \"#utility.yul\":4680:4684   */\n      dup2\n        /* \"#utility.yul\":4554:4685   */\n      tag_83\n      jump\t// in\n    tag_122:\n        /* \"#utility.yul\":4546:4685   */\n      swap1\n      pop\n        /* \"#utility.yul\":4273:4692   */\n      swap2\n      swap1\n      pop\n      jump\t// out\n\n    auxdata: 0xa2646970667358221220409e9f1bd86e8931f33842bfa1fb08d9a99ade38785b622e6244aa0172ac0a0964736f6c634300081a0033\n}\n",
				"bytecode": {
					"linkReferences": {},
					"object": "608060405234801561000f575f80fd5b5060405161081e38038061081e8339818101604052810190610031919061010d565b6100403361005560201b60201c565b61004f8161008260201b60201c565b50610138565b5f7fb53127684a568b3173ae13b9f8a6016e01a5b8b34c5b64c1d9f6a5b1e0bde6f35f1b90508181555050565b5f7f360894a13ba1a3210667c828492db98dca3e2076cc3735a920a3ca505d382bbc5f1b90508181555050565b5f80fd5b5f73ffffffffffffffffffffffffffffffffffffffff82169050919050565b5f6100dc826100b3565b9050919050565b6100ec816100d2565b81146100f6575f80fd5b50565b5f81519050610107816100e3565b92915050565b5f60208284031215610122576101216100af565b5b5f61012f848285016100f9565b91505092915050565b6106d9806101455f395ff3fe608060405260043610610042575f3560e01c80633659cfe61461006b5780635c60da1b146100935780638f283970146100bd578063f851a440146100e557610059565b366100595761005761005261010f565b61013e565b005b61006961006461010f565b61013e565b005b348015610076575f80fd5b50610091600480360381019061008c91906104e2565b61015d565b005b34801561009e575f80fd5b506100a761028f565b6040516100b4919061051c565b60405180910390f35b3480156100c8575f80fd5b506100e360048036038101906100de91906104e2565b61029d565b005b3480156100f0575f80fd5b506100f96103ed565b604051610106919061051c565b60405180910390f35b5f807f360894a13ba1a3210667c828492db98dca3e2076cc3735a920a3ca505d382bbc5f1b9050805491505090565b365f80375f80365f845af43d5f803e805f8114610159573d5ff35b3d5ffd5b6101656103fb565b73ffffffffffffffffffffffffffffffffffffffff163373ffffffffffffffffffffffffffffffffffffffff16146101d2576040517f08c379a00000000000000000000000000000000000000000000000000000000081526004016101c99061058f565b60405180910390fd5b5f73ffffffffffffffffffffffffffffffffffffffff168173ffffffffffffffffffffffffffffffffffffffff1603610240576040517f08c379a00000000000000000000000000000000000000000000000000000000081526004016102379061061d565b60405180910390fd5b6102498161042a565b8073ffffffffffffffffffffffffffffffffffffffff167fbc7cd75a20ee27fd9adebab32041f755214dbc6bffa90cc0225b39da2e5c2d3b60405160405180910390a250565b5f61029861010f565b905090565b6102a56103fb565b73ffffffffffffffffffffffffffffffffffffffff163373ffffffffffffffffffffffffffffffffffffffff1614610312576040517f08c379a00000000000000000000000000000000000000000000000000000000081526004016103099061058f565b60405180910390fd5b5f73ffffffffffffffffffffffffffffffffffffffff168173ffffffffffffffffffffffffffffffffffffffff1603610380576040517f08c379a000000000000000000000000000000000000000000000000000000000815260040161037790610685565b60405180910390fd5b8073ffffffffffffffffffffffffffffffffffffffff1661039f6103fb565b73ffffffffffffffffffffffffffffffffffffffff167f7e644d79422f17c01e4894b5f4f588d331ebfa28653d42ae832dc59e38c9798f60405160405180910390a36103ea81610457565b50565b5f6103f66103fb565b905090565b5f807fb53127684a568b3173ae13b9f8a6016e01a5b8b34c5b64c1d9f6a5b1e0bde6f35f1b9050805491505090565b5f7f360894a13ba1a3210667c828492db98dca3e2076cc3735a920a3ca505d382bbc5f1b90508181555050565b5f7fb53127684a568b3173ae13b9f8a6016e01a5b8b34c5b64c1d9f6a5b1e0bde6f35f1b90508181555050565b5f80fd5b5f73ffffffffffffffffffffffffffffffffffffffff82169050919050565b5f6104b182610488565b9050919050565b6104c1816104a7565b81146104cb575f80fd5b50565b5f813590506104dc816104b8565b92915050565b5f602082840312156104f7576104f6610484565b5b5f610504848285016104ce565b91505092915050565b610516816104a7565b82525050565b5f60208201905061052f5f83018461050d565b92915050565b5f82825260208201905092915050565b7f50726f78793a2063616c6c6572206973206e6f742061646d696e0000000000005f82015250565b5f610579601a83610535565b915061058482610545565b602082019050919050565b5f6020820190508181035f8301526105a68161056d565b9050919050565b7f50726f78793a206e657720696d706c656d656e746174696f6e206973207a65725f8201527f6f20616464726573730000000000000000000000000000000000000000000000602082015250565b5f610607602983610535565b9150610612826105ad565b604082019050919050565b5f6020820190508181035f830152610634816105fb565b9050919050565b7f50726f78793a206e65772061646d696e206973207a65726f20616464726573735f82015250565b5f61066f602083610535565b915061067a8261063b565b602082019050919050565b5f6020820190508181035f83015261069c81610663565b905091905056fea2646970667358221220409e9f1bd86e8931f33842bfa1fb08d9a99ade38785b622e6244aa0172ac0a0964736f6c634300081a0033",
					"opcodes": "PUSH1 0x80 PUSH1 0x40 MSTORE CALLVALUE DUP1 ISZERO PUSH2 0xF JUMPI PUSH0 DUP1 REVERT JUMPDEST POP PUSH1 0x40 MLOAD PUSH2 0x81E CODESIZE SUB DUP1 PUSH2 0x81E DUP4 CODECOPY DUP2 DUP2 ADD PUSH1 0x40 MSTORE DUP2 ADD SWAP1 PUSH2 0x31 SWAP2 SWAP1 PUSH2 0x10D JUMP JUMPDEST PUSH2 0x40 CALLER PUSH2 0x55 PUSH1 0x20 SHL PUSH1 0x20 SHR JUMP JUMPDEST PUSH2 0x4F DUP2 PUSH2 0x82 PUSH1 0x20 SHL PUSH1 0x20 SHR JUMP JUMPDEST POP PUSH2 0x138 JUMP JUMPDEST PUSH0 PUSH32 0xB53127684A568B3173AE13B9F8A6016E01A5B8B34C5B64C1D9F6A5B1E0BDE6F3 PUSH0 SHL SWAP1 POP DUP2 DUP2 SSTORE POP POP JUMP JUMPDEST PUSH0 PUSH32 0x360894A13BA1A3210667C828492DB98DCA3E2076CC3735A920A3CA505D382BBC PUSH0 SHL SWAP1 POP DUP2 DUP2 SSTORE POP POP JUMP JUMPDEST PUSH0 DUP1 REVERT JUMPDEST PUSH0 PUSH20 0xFFFFFFFFFFFFFFFFFFFFFFFFFFFFFFFFFFFFFFFF DUP3 AND SWAP1 POP SWAP2 SWAP1 POP JUMP JUMPDEST PUSH0 PUSH2 0xDC DUP3 PUSH2 0xB3 JUMP JUMPDEST SWAP1 POP SWAP2 SWAP1 POP JUMP JUMPDEST PUSH2 0xEC DUP2 PUSH2 0xD2 JUMP JUMPDEST DUP2 EQ PUSH2 0xF6 JUMPI PUSH0 DUP1 REVERT JUMPDEST POP JUMP JUMPDEST PUSH0 DUP2 MLOAD SWAP1 POP PUSH2 0x107 DUP2 PUSH2 0xE3 JUMP JUMPDEST SWAP3 SWAP2 POP POP JUMP JUMPDEST PUSH0 PUSH1 0x20 DUP3 DUP5 SUB SLT ISZERO PUSH2 0x122 JUMPI PUSH2 0x121 PUSH2 0xAF JUMP JUMPDEST JUMPDEST PUSH0 PUSH2 0x12F DUP5 DUP3 DUP6 ADD PUSH2 0xF9 JUMP JUMPDEST SWAP2 POP POP SWAP3 SWAP2 POP POP JUMP JUMPDEST PUSH2 0x6D9 DUP1 PUSH2 0x145 PUSH0 CODECOPY PUSH0 RETURN INVALID PUSH1 0x80 PUSH1 0x40 MSTORE PUSH1 0x4 CALLDATASIZE LT PUSH2 0x42 JUMPI PUSH0 CALLDATALOAD PUSH1 0xE0 SHR DUP1 PUSH4 0x3659CFE6 EQ PUSH2 0x6B JUMPI DUP1 PUSH4 0x5C60DA1B EQ PUSH2 0x93 JUMPI DUP1 PUSH4 0x8F283970 EQ PUSH2 0xBD JUMPI DUP1 PUSH4 0xF851A440 EQ PUSH2 0xE5 JUMPI PUSH2 0x59 JUMP JUMPDEST CALLDATASIZE PUSH2 0x59 JUMPI PUSH2 0x57 PUSH2 0x52 PUSH2 0x10F JUMP JUMPDEST PUSH2 0x13E JUMP JUMPDEST STOP JUMPDEST PUSH2 0x69 PUSH2 0x64 PUSH2 0x10F JUMP JUMPDEST PUSH2 0x13E JUMP JUMPDEST STOP JUMPDEST CALLVALUE DUP1 ISZERO PUSH2 0x76 JUMPI PUSH0 DUP1 REVERT JUMPDEST POP PUSH2 0x91 PUSH1 0x4 DUP1 CALLDATASIZE SUB DUP2 ADD SWAP1 PUSH2 0x8C SWAP2 SWAP1 PUSH2 0x4E2 JUMP JUMPDEST PUSH2 0x15D JUMP JUMPDEST STOP JUMPDEST CALLVALUE DUP1 ISZERO PUSH2 0x9E JUMPI PUSH0 DUP1 REVERT JUMPDEST POP PUSH2 0xA7 PUSH2 0x28F JUMP JUMPDEST PUSH1 0x40 MLOAD PUSH2 0xB4 SWAP2 SWAP1 PUSH2 0x51C JUMP JUMPDEST PUSH1 0x40 MLOAD DUP1 SWAP2 SUB SWAP1 RETURN JUMPDEST CALLVALUE DUP1 ISZERO PUSH2 0xC8 JUMPI PUSH0 DUP1 REVERT JUMPDEST POP PUSH2 0xE3 PUSH1 0x4 DUP1 CALLDATASIZE SUB DUP2 ADD SWAP1 PUSH2 0xDE SWAP2 SWAP1 PUSH2 0x4E2 JUMP JUMPDEST PUSH2 0x29D JUMP JUMPDEST STOP JUMPDEST CALLVALUE DUP1 ISZERO PUSH2 0xF0 JUMPI PUSH0 DUP1 REVERT JUMPDEST POP PUSH2 0xF9 PUSH2 0x3ED JUMP JUMPDEST PUSH1 0x40 MLOAD PUSH2 0x106 SWAP2 SWAP1 PUSH2 0x51C JUMP JUMPDEST PUSH1 0x40 MLOAD DUP1 SWAP2 SUB SWAP1 RETURN JUMPDEST PUSH0 DUP1 PUSH32 0x360894A13BA1A3210667C828492DB98DCA3E2076CC3735A920A3CA505D382BBC PUSH0 SHL SWAP1 POP DUP1 SLOAD SWAP2 POP POP SWAP1 JUMP JUMPDEST CALLDATASIZE PUSH0 DUP1 CALLDATACOPY PUSH0 DUP1 CALLDATASIZE PUSH0 DUP5 GAS DELEGATECALL RETURNDATASIZE PUSH0 DUP1 RETURNDATACOPY DUP1 PUSH0 DUP2 EQ PUSH2 0x159 JUMPI RETURNDATASIZE PUSH0 RETURN JUMPDEST RETURNDATASIZE PUSH0 REVERT JUMPDEST PUSH2 0x165 PUSH2 0x3FB JUMP JUMPDEST PUSH20 0xFFFFFFFFFFFFFFFFFFFFFFFFFFFFFFFFFFFFFFFF AND CALLER PUSH20 0xFFFFFFFFFFFFFFFFFFFFFFFFFFFFFFFFFFFFFFFF AND EQ PUSH2 0x1D2 JUMPI PUSH1 0x40 MLOAD PUSH32 0x8C379A000000000000000000000000000000000000000000000000000000000 DUP2 MSTORE PUSH1 0x4 ADD PUSH2 0x1C9 SWAP1 PUSH2 0x58F JUMP JUMPDEST PUSH1 0x40 MLOAD DUP1 SWAP2 SUB SWAP1 REVERT JUMPDEST PUSH0 PUSH20 0xFFFFFFFFFFFFFFFFFFFFFFFFFFFFFFFFFFFFFFFF AND DUP2 PUSH20 0xFFFFFFFFFFFFFFFFFFFFFFFFFFFFFFFFFFFFFFFF AND SUB PUSH2 0x240 JUMPI PUSH1 0x40 MLOAD PUSH32 0x8C379A000000000000000000000000000000000000000000000000000000000 DUP2 MSTORE PUSH1 0x4 ADD PUSH2 0x237 SWAP1 PUSH2 0x61D JUMP JUMPDEST PUSH1 0x40 MLOAD DUP1 SWAP2 SUB SWAP1 REVERT JUMPDEST PUSH2 0x249 DUP2 PUSH2 0x42A JUMP JUMPDEST DUP1 PUSH20 0xFFFFFFFFFFFFFFFFFFFFFFFFFFFFFFFFFFFFFFFF AND PUSH32 0xBC7CD75A20EE27FD9ADEBAB32041F755214DBC6BFFA90CC0225B39DA2E5C2D3B PUSH1 0x40 MLOAD PUSH1 0x40 MLOAD DUP1 SWAP2 SUB SWAP1 LOG2 POP JUMP JUMPDEST PUSH0 PUSH2 0x298 PUSH2 0x10F JUMP JUMPDEST SWAP1 POP SWAP1 JUMP JUMPDEST PUSH2 0x2A5 PUSH2 0x3FB JUMP JUMPDEST PUSH20 0xFFFFFFFFFFFFFFFFFFFFFFFFFFFFFFFFFFFFFFFF AND CALLER PUSH20 0xFFFFFFFFFFFFFFFFFFFFFFFFFFFFFFFFFFFFFFFF AND EQ PUSH2 0x312 JUMPI PUSH1 0x40 MLOAD PUSH32 0x8C379A000000000000000000000000000000000000000000000000000000000 DUP2 MSTORE PUSH1 0x4 ADD PUSH2 0x309 SWAP1 PUSH2 0x58F JUMP JUMPDEST PUSH1 0x40 MLOAD DUP1 SWAP2 SUB SWAP1 REVERT JUMPDEST PUSH0 PUSH20 0xFFFFFFFFFFFFFFFFFFFFFFFFFFFFFFFFFFFFFFFF AND DUP2 PUSH20 0xFFFFFFFFFFFFFFFFFFFFFFFFFFFFFFFFFFFFFFFF AND SUB PUSH2 0x380 JUMPI PUSH1 0x40 MLOAD PUSH32 0x8C379A000000000000000000000000000000000000000000000000000000000 DUP2 MSTORE PUSH1 0x4 ADD PUSH2 0x377 SWAP1 PUSH2 0x685 JUMP JUMPDEST PUSH1 0x40 MLOAD DUP1 SWAP2 SUB SWAP1 REVERT JUMPDEST DUP1 PUSH20 0xFFFFFFFFFFFFFFFFFFFFFFFFFFFFFFFFFFFFFFFF AND PUSH2 0x39F PUSH2 0x3FB JUMP JUMPDEST PUSH20 0xFFFFFFFFFFFFFFFFFFFFFFFFFFFFFFFFFFFFFFFF AND PUSH32 0x7E644D79422F17C01E4894B5F4F588D331EBFA28653D42AE832DC59E38C9798F PUSH1 0x40 MLOAD PUSH1 0x40 MLOAD DUP1 SWAP2 SUB SWAP1 LOG3 PUSH2 0x3EA DUP2 PUSH2 0x457 JUMP JUMPDEST POP JUMP JUMPDEST PUSH0 PUSH2 0x3F6 PUSH2 0x3FB JUMP JUMPDEST SWAP1 POP SWAP1 JUMP JUMPDEST PUSH0 DUP1 PUSH32 0xB53127684A568B3173AE13B9F8A6016E01A5B8B34C5B64C1D9F6A5B1E0BDE6F3 PUSH0 SHL SWAP1 POP DUP1 SLOAD SWAP2 POP POP SWAP1 JUMP JUMPDEST PUSH0 PUSH32 0x360894A13BA1A3210667C828492DB98DCA3E2076CC3735A920A3CA505D382BBC PUSH0 SHL SWAP1 POP DUP2 DUP2 SSTORE POP POP JUMP JUMPDEST PUSH0 PUSH32 0xB53127684A568B3173AE13B9F8A6016E01A5B8B34C5B64C1D9F6A5B1E0BDE6F3 PUSH0 SHL SWAP1 POP DUP2 DUP2 SSTORE POP POP JUMP JUMPDEST PUSH0 DUP1 REVERT JUMPDEST PUSH0 PUSH20 0xFFFFFFFFFFFFFFFFFFFFFFFFFFFFFFFFFFFFFFFF DUP3 AND SWAP1 POP SWAP2 SWAP1 POP JUMP JUMPDEST PUSH0 PUSH2 0x4B1 DUP3 PUSH2 0x488 JUMP JUMPDEST SWAP1 POP SWAP2 SWAP1 POP JUMP JUMPDEST PUSH2 0x4C1 DUP2 PUSH2 0x4A7 JUMP JUMPDEST DUP2 EQ PUSH2 0x4CB JUMPI PUSH0 DUP1 REVERT JUMPDEST POP JUMP JUMPDEST PUSH0 DUP2 CALLDATALOAD SWAP1 POP PUSH2 0x4DC DUP2 PUSH2 0x4B8 JUMP JUMPDEST SWAP3 SWAP2 POP POP JUMP JUMPDEST PUSH0 PUSH1 0x20 DUP3 DUP5 SUB SLT ISZERO PUSH2 0x4F7 JUMPI PUSH2 0x4F6 PUSH2 0x484 JUMP JUMPDEST JUMPDEST PUSH0 PUSH2 0x504 DUP5 DUP3 DUP6 ADD PUSH2 0x4CE JUMP JUMPDEST SWAP2 POP POP SWAP3 SWAP2 POP POP JUMP JUMPDEST PUSH2 0x516 DUP2 PUSH2 0x4A7 JUMP JUMPDEST DUP3 MSTORE POP POP JUMP JUMPDEST PUSH0 PUSH1 0x20 DUP3 ADD SWAP1 POP PUSH2 0x52F PUSH0 DUP4 ADD DUP5 PUSH2 0x50D JUMP JUMPDEST SWAP3 SWAP2 POP POP JUMP JUMPDEST PUSH0 DUP3 DUP3 MSTORE PUSH1 0x20 DUP3 ADD SWAP1 POP SWAP3 SWAP2 POP POP JUMP JUMPDEST PUSH32 0x50726F78793A2063616C6C6572206973206E6F742061646D696E000000000000 PUSH0 DUP3 ADD MSTORE POP JUMP JUMPDEST PUSH0 PUSH2 0x579 PUSH1 0x1A DUP4 PUSH2 0x535 JUMP JUMPDEST SWAP2 POP PUSH2 0x584 DUP3 PUSH2 0x545 JUMP JUMPDEST PUSH1 0x20 DUP3 ADD SWAP1 POP SWAP2 SWAP1 POP JUMP JUMPDEST PUSH0 PUSH1 0x20 DUP3 ADD SWAP1 POP DUP2 DUP2 SUB PUSH0 DUP4 ADD MSTORE PUSH2 0x5A6 DUP2 PUSH2 0x56D JUMP JUMPDEST SWAP1 POP SWAP2 SWAP1 POP JUMP JUMPDEST PUSH32 0x50726F78793A206E657720696D706C656D656E746174696F6E206973207A6572 PUSH0 DUP3 ADD MSTORE PUSH32 0x6F20616464726573730000000000000000000000000000000000000000000000 PUSH1 0x20 DUP3 ADD MSTORE POP JUMP JUMPDEST PUSH0 PUSH2 0x607 PUSH1 0x29 DUP4 PUSH2 0x535 JUMP JUMPDEST SWAP2 POP PUSH2 0x612 DUP3 PUSH2 0x5AD JUMP JUMPDEST PUSH1 0x40 DUP3 ADD SWAP1 POP SWAP2 SWAP1 POP JUMP JUMPDEST PUSH0 PUSH1 0x20 DUP3 ADD SWAP1 POP DUP2 DUP2 SUB PUSH0 DUP4 ADD MSTORE PUSH2 0x634 DUP2 PUSH2 0x5FB JUMP JUMPDEST SWAP1 POP SWAP2 SWAP1 POP JUMP JUMPDEST PUSH32 0x50726F78793A206E65772061646D696E206973207A65726F2061646472657373 PUSH0 DUP3 ADD MSTORE POP JUMP JUMPDEST PUSH0 PUSH2 0x66F PUSH1 0x20 DUP4 PUSH2 0x535 JUMP JUMPDEST SWAP2 POP PUSH2 0x67A DUP3 PUSH2 0x63B JUMP JUMPDEST PUSH1 0x20 DUP3 ADD SWAP1 POP SWAP2 SWAP1 POP JUMP JUMPDEST PUSH0 PUSH1 0x20 DUP3 ADD SWAP1 POP DUP2 DUP2 SUB PUSH0 DUP4 ADD MSTORE PUSH2 0x69C DUP2 PUSH2 0x663 JUMP JUMPDEST SWAP1 POP SWAP2 SWAP1 POP JUMP INVALID LOG2 PUSH5 0x6970667358 0x22 SLT KECCAK256 BLOCKHASH SWAP15 SWAP16 SHL 0xD8 PUSH15 0x8931F33842BFA1FB08D9A99ADE3878 JUMPDEST PUSH3 0x2E6244 0xAA ADD PUSH19 0xAC0A0964736F6C634300081A00330000000000 "
				},
				"gasEstimates": {
					"creation": {
						"codeDepositCost": "350600",
						"executionCost": "infinite",
						"totalCost": "infinite"
					},
					"external": {
						"": "infinite",
						"admin()": "2576",
						"changeAdmin(address)": "infinite",
						"implementation()": "2532",
						"upgradeTo(address)": "25960"
					},
					"internal": {
						"_admin()": "2140",
						"_delegate(address)": "infinite",
						"_implementation()": "2140",
						"_setAdmin(address)": "22134",
						"_setImplementation(address)": "22134"
					}
				},
				"methodIdentifiers": {
					"admin()": "f851a440",
					"changeAdmin(address)": "8f283970",
					"implementation()": "5c60da1b",
					"upgradeTo(address)": "3659cfe6"
				}
			},
			"storageLayout": {
				"storage": [],
				"types": null
			},
			"userdoc": {
				"kind": "user",
				"methods": {
					"admin()": {
						"notice": "Returns current admin address"
					},
					"changeAdmin(address)": {
						"notice": "Change proxy admin address"
					},
					"implementation()": {
						"notice": "Returns current implementation address"
					},
					"upgradeTo(address)": {
						"notice": "Upgrade implementation contract address"
					}
				},
				"notice": "Allows upgrading implementation address following EIP-1967 standard",
				"version": 1
			}
		}
	}
}